{
	"data": {
		"bytecode": {
			"linkReferences": {},
			"object": "60806040526002600055600760015534801561001a57600080fd5b506102e68061002a6000396000f3fe608060405234801561001057600080fd5b506004361061004c5760003560e01c806315d4266c146100515780633a8733141461006f5780633b9eac4b1461008e5780634717f97c146100ac575b600080fd5b6100596100cb565b604051610066919061018d565b60405180910390f35b6100776100d1565b6040516100859291906101a8565b60405180910390f35b610096610139565b6040516100a3919061018d565b60405180910390f35b6100b461013f565b6040516100c29291906101a8565b60405180910390f35b60015481565b6000806000601490506000601e905060056000808282546100f29190610200565b9250508190555060076001600082825461010c9190610200565b925050819055506001546000546101239190610256565b935080826101319190610200565b925050509091565b60005481565b6000806000601490506000601e905060015460005461015e9190610256565b9350808261016c9190610200565b925050509091565b6000819050919050565b61018781610174565b82525050565b60006020820190506101a2600083018461017e565b92915050565b60006040820190506101bd600083018561017e565b6101ca602083018461017e565b9392505050565b7f4e487b7100000000000000000000000000000000000000000000000000000000600052601160045260246000fd5b600061020b82610174565b915061021683610174565b9250827fffffffffffffffffffffffffffffffffffffffffffffffffffffffffffffffff0382111561024b5761024a6101d1565b5b828201905092915050565b600061026182610174565b915061026c83610174565b9250817fffffffffffffffffffffffffffffffffffffffffffffffffffffffffffffffff04831182151516156102a5576102a46101d1565b5b82820290509291505056fea2646970667358221220b956395a0bc205076636ebe1beea032e7f8f1e92cbebd836bb954d58bd45461064736f6c634300080d0033",
			"opcodes": "PUSH1 0x80 PUSH1 0x40 MSTORE PUSH1 0x2 PUSH1 0x0 SSTORE PUSH1 0x7 PUSH1 0x1 SSTORE CALLVALUE DUP1 ISZERO PUSH2 0x1A JUMPI PUSH1 0x0 DUP1 REVERT JUMPDEST POP PUSH2 0x2E6 DUP1 PUSH2 0x2A PUSH1 0x0 CODECOPY PUSH1 0x0 RETURN INVALID PUSH1 0x80 PUSH1 0x40 MSTORE CALLVALUE DUP1 ISZERO PUSH2 0x10 JUMPI PUSH1 0x0 DUP1 REVERT JUMPDEST POP PUSH1 0x4 CALLDATASIZE LT PUSH2 0x4C JUMPI PUSH1 0x0 CALLDATALOAD PUSH1 0xE0 SHR DUP1 PUSH4 0x15D4266C EQ PUSH2 0x51 JUMPI DUP1 PUSH4 0x3A873314 EQ PUSH2 0x6F JUMPI DUP1 PUSH4 0x3B9EAC4B EQ PUSH2 0x8E JUMPI DUP1 PUSH4 0x4717F97C EQ PUSH2 0xAC JUMPI JUMPDEST PUSH1 0x0 DUP1 REVERT JUMPDEST PUSH2 0x59 PUSH2 0xCB JUMP JUMPDEST PUSH1 0x40 MLOAD PUSH2 0x66 SWAP2 SWAP1 PUSH2 0x18D JUMP JUMPDEST PUSH1 0x40 MLOAD DUP1 SWAP2 SUB SWAP1 RETURN JUMPDEST PUSH2 0x77 PUSH2 0xD1 JUMP JUMPDEST PUSH1 0x40 MLOAD PUSH2 0x85 SWAP3 SWAP2 SWAP1 PUSH2 0x1A8 JUMP JUMPDEST PUSH1 0x40 MLOAD DUP1 SWAP2 SUB SWAP1 RETURN JUMPDEST PUSH2 0x96 PUSH2 0x139 JUMP JUMPDEST PUSH1 0x40 MLOAD PUSH2 0xA3 SWAP2 SWAP1 PUSH2 0x18D JUMP JUMPDEST PUSH1 0x40 MLOAD DUP1 SWAP2 SUB SWAP1 RETURN JUMPDEST PUSH2 0xB4 PUSH2 0x13F JUMP JUMPDEST PUSH1 0x40 MLOAD PUSH2 0xC2 SWAP3 SWAP2 SWAP1 PUSH2 0x1A8 JUMP JUMPDEST PUSH1 0x40 MLOAD DUP1 SWAP2 SUB SWAP1 RETURN JUMPDEST PUSH1 0x1 SLOAD DUP2 JUMP JUMPDEST PUSH1 0x0 DUP1 PUSH1 0x0 PUSH1 0x14 SWAP1 POP PUSH1 0x0 PUSH1 0x1E SWAP1 POP PUSH1 0x5 PUSH1 0x0 DUP1 DUP3 DUP3 SLOAD PUSH2 0xF2 SWAP2 SWAP1 PUSH2 0x200 JUMP JUMPDEST SWAP3 POP POP DUP2 SWAP1 SSTORE POP PUSH1 0x7 PUSH1 0x1 PUSH1 0x0 DUP3 DUP3 SLOAD PUSH2 0x10C SWAP2 SWAP1 PUSH2 0x200 JUMP JUMPDEST SWAP3 POP POP DUP2 SWAP1 SSTORE POP PUSH1 0x1 SLOAD PUSH1 0x0 SLOAD PUSH2 0x123 SWAP2 SWAP1 PUSH2 0x256 JUMP JUMPDEST SWAP4 POP DUP1 DUP3 PUSH2 0x131 SWAP2 SWAP1 PUSH2 0x200 JUMP JUMPDEST SWAP3 POP POP POP SWAP1 SWAP2 JUMP JUMPDEST PUSH1 0x0 SLOAD DUP2 JUMP JUMPDEST PUSH1 0x0 DUP1 PUSH1 0x0 PUSH1 0x14 SWAP1 POP PUSH1 0x0 PUSH1 0x1E SWAP1 POP PUSH1 0x1 SLOAD PUSH1 0x0 SLOAD PUSH2 0x15E SWAP2 SWAP1 PUSH2 0x256 JUMP JUMPDEST SWAP4 POP DUP1 DUP3 PUSH2 0x16C SWAP2 SWAP1 PUSH2 0x200 JUMP JUMPDEST SWAP3 POP POP POP SWAP1 SWAP2 JUMP JUMPDEST PUSH1 0x0 DUP2 SWAP1 POP SWAP2 SWAP1 POP JUMP JUMPDEST PUSH2 0x187 DUP2 PUSH2 0x174 JUMP JUMPDEST DUP3 MSTORE POP POP JUMP JUMPDEST PUSH1 0x0 PUSH1 0x20 DUP3 ADD SWAP1 POP PUSH2 0x1A2 PUSH1 0x0 DUP4 ADD DUP5 PUSH2 0x17E JUMP JUMPDEST SWAP3 SWAP2 POP POP JUMP JUMPDEST PUSH1 0x0 PUSH1 0x40 DUP3 ADD SWAP1 POP PUSH2 0x1BD PUSH1 0x0 DUP4 ADD DUP6 PUSH2 0x17E JUMP JUMPDEST PUSH2 0x1CA PUSH1 0x20 DUP4 ADD DUP5 PUSH2 0x17E JUMP JUMPDEST SWAP4 SWAP3 POP POP POP JUMP JUMPDEST PUSH32 0x4E487B7100000000000000000000000000000000000000000000000000000000 PUSH1 0x0 MSTORE PUSH1 0x11 PUSH1 0x4 MSTORE PUSH1 0x24 PUSH1 0x0 REVERT JUMPDEST PUSH1 0x0 PUSH2 0x20B DUP3 PUSH2 0x174 JUMP JUMPDEST SWAP2 POP PUSH2 0x216 DUP4 PUSH2 0x174 JUMP JUMPDEST SWAP3 POP DUP3 PUSH32 0xFFFFFFFFFFFFFFFFFFFFFFFFFFFFFFFFFFFFFFFFFFFFFFFFFFFFFFFFFFFFFFFF SUB DUP3 GT ISZERO PUSH2 0x24B JUMPI PUSH2 0x24A PUSH2 0x1D1 JUMP JUMPDEST JUMPDEST DUP3 DUP3 ADD SWAP1 POP SWAP3 SWAP2 POP POP JUMP JUMPDEST PUSH1 0x0 PUSH2 0x261 DUP3 PUSH2 0x174 JUMP JUMPDEST SWAP2 POP PUSH2 0x26C DUP4 PUSH2 0x174 JUMP JUMPDEST SWAP3 POP DUP2 PUSH32 0xFFFFFFFFFFFFFFFFFFFFFFFFFFFFFFFFFFFFFFFFFFFFFFFFFFFFFFFFFFFFFFFF DIV DUP4 GT DUP3 ISZERO ISZERO AND ISZERO PUSH2 0x2A5 JUMPI PUSH2 0x2A4 PUSH2 0x1D1 JUMP JUMPDEST JUMPDEST DUP3 DUP3 MUL SWAP1 POP SWAP3 SWAP2 POP POP JUMP INVALID LOG2 PUSH5 0x6970667358 0x22 SLT KECCAK256 0xB9 JUMP CODECOPY GAS SIGNEXTEND 0xC2 SDIV SMOD PUSH7 0x36EBE1BEEA032E PUSH32 0x8F1E92CBEBD836BB954D58BD45461064736F6C634300080D0033000000000000 "
		},
		"gasEstimates": {
			"creation": {
				"codeDepositCost": "148400",
				"executionCost": "44408",
				"totalCost": "192808"
			},
			"external": {
				"getResults()": "infinite",
				"getResults1()": "infinite",
				"num1()": "2451",
				"num2()": "2407"
			}
		},
		"methodIdentifiers": {
			"getResults()": "4717f97c",
			"getResults1()": "3a873314",
			"num1()": "3b9eac4b",
			"num2()": "15d4266c"
		}
	},
	"abi": [
		{
			"inputs": [],
			"name": "getResults",
			"outputs": [
				{
					"internalType": "uint256",
					"name": "product",
					"type": "uint256"
				},
				{
					"internalType": "uint256",
					"name": "total",
					"type": "uint256"
				}
			],
			"stateMutability": "view",
			"type": "function"
		},
		{
			"inputs": [],
			"name": "getResults1",
			"outputs": [
				{
					"internalType": "uint256",
					"name": "product",
					"type": "uint256"
				},
				{
					"internalType": "uint256",
					"name": "total",
					"type": "uint256"
				}
			],
			"stateMutability": "nonpayable",
			"type": "function"
		},
		{
			"inputs": [],
			"name": "num1",
			"outputs": [
				{
					"internalType": "uint256",
					"name": "",
					"type": "uint256"
				}
			],
			"stateMutability": "view",
			"type": "function"
		},
		{
			"inputs": [],
			"name": "num2",
			"outputs": [
				{
					"internalType": "uint256",
					"name": "",
					"type": "uint256"
				}
			],
			"stateMutability": "view",
			"type": "function"
		}
	]
}