{
	"contract/requiredError.sol": {
		"RequiredError": {
			"abi": [
				{
					"inputs": [
						{
							"internalType": "uint256",
							"name": "_input",
							"type": "uint256"
						}
					],
					"name": "check",
					"outputs": [
						{
							"internalType": "string",
							"name": "",
							"type": "string"
						}
					],
					"stateMutability": "pure",
					"type": "function"
				},
				{
					"inputs": [
						{
							"internalType": "uint256",
							"name": "_input",
							"type": "uint256"
						}
					],
					"name": "odd",
					"outputs": [
						{
							"internalType": "bool",
							"name": "",
							"type": "bool"
						}
					],
					"stateMutability": "pure",
					"type": "function"
				}
			],
			"devdoc": {
				"kind": "dev",
				"methods": {},
				"version": 1
			},
			"evm": {
				"assembly": "    /* \"contract/requiredError.sol\":112:470  contract RequiredError {... */\n  mstore(0x40, 0x80)\n  callvalue\n  dup1\n  iszero\n  tag_1\n  jumpi\n  0x00\n  dup1\n  revert\ntag_1:\n  pop\n  dataSize(sub_0)\n  dup1\n  dataOffset(sub_0)\n  0x00\n  codecopy\n  0x00\n  return\nstop\n\nsub_0: assembly {\n        /* \"contract/requiredError.sol\":112:470  contract RequiredError {... */\n      mstore(0x40, 0x80)\n      callvalue\n      dup1\n      iszero\n      tag_1\n      jumpi\n      0x00\n      dup1\n      revert\n    tag_1:\n      pop\n      jumpi(tag_2, lt(calldatasize, 0x04))\n      shr(0xe0, calldataload(0x00))\n      dup1\n      0x0602c36a\n      eq\n      tag_3\n      jumpi\n      dup1\n      0x5f72f450\n      eq\n      tag_4\n      jumpi\n    tag_2:\n      0x00\n      dup1\n      revert\n        /* \"contract/requiredError.sol\":350:468  function odd(uint256 _input) public pure returns (bool) {... */\n    tag_3:\n      tag_5\n      0x04\n      dup1\n      calldatasize\n      sub\n      dup2\n      add\n      swap1\n      tag_6\n      swap2\n      swap1\n      tag_7\n      jump\t// in\n    tag_6:\n      tag_8\n      jump\t// in\n    tag_5:\n      mload(0x40)\n      tag_9\n      swap2\n      swap1\n      tag_10\n      jump\t// in\n    tag_9:\n      mload(0x40)\n      dup1\n      swap2\n      sub\n      swap1\n      return\n        /* \"contract/requiredError.sol\":141:344  function check(uint256 _input) public pure returns (string memory) {... */\n    tag_4:\n      tag_11\n      0x04\n      dup1\n      calldatasize\n      sub\n      dup2\n      add\n      swap1\n      tag_12\n      swap2\n      swap1\n      tag_7\n      jump\t// in\n    tag_12:\n      tag_13\n      jump\t// in\n    tag_11:\n      mload(0x40)\n      tag_14\n      swap2\n      swap1\n      tag_15\n      jump\t// in\n    tag_14:\n      mload(0x40)\n      dup1\n      swap2\n      sub\n      swap1\n      return\n        /* \"contract/requiredError.sol\":350:468  function odd(uint256 _input) public pure returns (bool) {... */\n    tag_8:\n        /* \"contract/requiredError.sol\":400:404  bool */\n      0x00\n        /* \"contract/requiredError.sol\":438:439  0 */\n      dup1\n        /* \"contract/requiredError.sol\":433:434  2 */\n      0x02\n        /* \"contract/requiredError.sol\":424:430  _input */\n      dup4\n        /* \"contract/requiredError.sol\":424:434  _input % 2 */\n      tag_17\n      swap2\n      swap1\n      tag_18\n      jump\t// in\n    tag_17:\n        /* \"contract/requiredError.sol\":424:439  _input % 2 != 0 */\n      sub\n        /* \"contract/requiredError.sol\":416:440  require(_input % 2 != 0) */\n      tag_19\n      jumpi\n      0x00\n      dup1\n      revert\n    tag_19:\n        /* \"contract/requiredError.sol\":457:461  true */\n      0x01\n        /* \"contract/requiredError.sol\":450:461  return true */\n      swap1\n      pop\n        /* \"contract/requiredError.sol\":350:468  function odd(uint256 _input) public pure returns (bool) {... */\n      swap2\n      swap1\n      pop\n      jump\t// out\n        /* \"contract/requiredError.sol\":141:344  function check(uint256 _input) public pure returns (string memory) {... */\n    tag_13:\n        /* \"contract/requiredError.sol\":193:206  string memory */\n      0x60\n        /* \"contract/requiredError.sol\":236:237  0 */\n      0x00\n        /* \"contract/requiredError.sol\":226:232  _input */\n      dup3\n        /* \"contract/requiredError.sol\":226:237  _input >= 0 */\n      lt\n      iszero\n        /* \"contract/requiredError.sol\":218:255  require(_input >= 0, \"invalid uint8\") */\n      tag_21\n      jumpi\n      mload(0x40)\n      0x08c379a000000000000000000000000000000000000000000000000000000000\n      dup2\n      mstore\n      0x04\n      add\n      tag_22\n      swap1\n      tag_23\n      jump\t// in\n    tag_22:\n      mload(0x40)\n      dup1\n      swap2\n      sub\n      swap1\n      revert\n    tag_21:\n        /* \"contract/requiredError.sol\":283:286  255 */\n      0xff\n        /* \"contract/requiredError.sol\":273:279  _input */\n      dup3\n        /* \"contract/requiredError.sol\":273:286  _input <= 255 */\n      gt\n      iszero\n        /* \"contract/requiredError.sol\":265:303  require(_input <= 255, \"invalid uint\") */\n      tag_24\n      jumpi\n      mload(0x40)\n      0x08c379a000000000000000000000000000000000000000000000000000000000\n      dup2\n      mstore\n      0x04\n      add\n      tag_25\n      swap1\n      tag_26\n      jump\t// in\n    tag_25:\n      mload(0x40)\n      dup1\n      swap2\n      sub\n      swap1\n      revert\n    tag_24:\n        /* \"contract/requiredError.sol\":314:337  return \"input is uint8\" */\n      mload(0x40)\n      dup1\n      0x40\n      add\n      0x40\n      mstore\n      dup1\n      0x0e\n      dup2\n      mstore\n      0x20\n      add\n      0x696e7075742069732075696e7438000000000000000000000000000000000000\n      dup2\n      mstore\n      pop\n      swap1\n      pop\n        /* \"contract/requiredError.sol\":141:344  function check(uint256 _input) public pure returns (string memory) {... */\n      swap2\n      swap1\n      pop\n      jump\t// out\n        /* \"#utility.yul\":88:205   */\n    tag_28:\n        /* \"#utility.yul\":197:198   */\n      0x00\n        /* \"#utility.yul\":194:195   */\n      dup1\n        /* \"#utility.yul\":187:199   */\n      revert\n        /* \"#utility.yul\":334:411   */\n    tag_30:\n        /* \"#utility.yul\":371:378   */\n      0x00\n        /* \"#utility.yul\":400:405   */\n      dup2\n        /* \"#utility.yul\":389:405   */\n      swap1\n      pop\n        /* \"#utility.yul\":334:411   */\n      swap2\n      swap1\n      pop\n      jump\t// out\n        /* \"#utility.yul\":417:539   */\n    tag_31:\n        /* \"#utility.yul\":490:514   */\n      tag_51\n        /* \"#utility.yul\":508:513   */\n      dup2\n        /* \"#utility.yul\":490:514   */\n      tag_30\n      jump\t// in\n    tag_51:\n        /* \"#utility.yul\":483:488   */\n      dup2\n        /* \"#utility.yul\":480:515   */\n      eq\n        /* \"#utility.yul\":470:533   */\n      tag_52\n      jumpi\n        /* \"#utility.yul\":529:530   */\n      0x00\n        /* \"#utility.yul\":526:527   */\n      dup1\n        /* \"#utility.yul\":519:531   */\n      revert\n        /* \"#utility.yul\":470:533   */\n    tag_52:\n        /* \"#utility.yul\":417:539   */\n      pop\n      jump\t// out\n        /* \"#utility.yul\":545:684   */\n    tag_32:\n        /* \"#utility.yul\":591:596   */\n      0x00\n        /* \"#utility.yul\":629:635   */\n      dup2\n        /* \"#utility.yul\":616:636   */\n      calldataload\n        /* \"#utility.yul\":607:636   */\n      swap1\n      pop\n        /* \"#utility.yul\":645:678   */\n      tag_54\n        /* \"#utility.yul\":672:677   */\n      dup2\n        /* \"#utility.yul\":645:678   */\n      tag_31\n      jump\t// in\n    tag_54:\n        /* \"#utility.yul\":545:684   */\n      swap3\n      swap2\n      pop\n      pop\n      jump\t// out\n        /* \"#utility.yul\":690:1019   */\n    tag_7:\n        /* \"#utility.yul\":749:755   */\n      0x00\n        /* \"#utility.yul\":798:800   */\n      0x20\n        /* \"#utility.yul\":786:795   */\n      dup3\n        /* \"#utility.yul\":777:784   */\n      dup5\n        /* \"#utility.yul\":773:796   */\n      sub\n        /* \"#utility.yul\":769:801   */\n      slt\n        /* \"#utility.yul\":766:885   */\n      iszero\n      tag_56\n      jumpi\n        /* \"#utility.yul\":804:883   */\n      tag_57\n      tag_28\n      jump\t// in\n    tag_57:\n        /* \"#utility.yul\":766:885   */\n    tag_56:\n        /* \"#utility.yul\":924:925   */\n      0x00\n        /* \"#utility.yul\":949:1002   */\n      tag_58\n        /* \"#utility.yul\":994:1001   */\n      dup5\n        /* \"#utility.yul\":985:991   */\n      dup3\n        /* \"#utility.yul\":974:983   */\n      dup6\n        /* \"#utility.yul\":970:992   */\n      add\n        /* \"#utility.yul\":949:1002   */\n      tag_32\n      jump\t// in\n    tag_58:\n        /* \"#utility.yul\":939:1002   */\n      swap2\n      pop\n        /* \"#utility.yul\":895:1012   */\n      pop\n        /* \"#utility.yul\":690:1019   */\n      swap3\n      swap2\n      pop\n      pop\n      jump\t// out\n        /* \"#utility.yul\":1025:1115   */\n    tag_33:\n        /* \"#utility.yul\":1059:1066   */\n      0x00\n        /* \"#utility.yul\":1102:1107   */\n      dup2\n        /* \"#utility.yul\":1095:1108   */\n      iszero\n        /* \"#utility.yul\":1088:1109   */\n      iszero\n        /* \"#utility.yul\":1077:1109   */\n      swap1\n      pop\n        /* \"#utility.yul\":1025:1115   */\n      swap2\n      swap1\n      pop\n      jump\t// out\n        /* \"#utility.yul\":1121:1230   */\n    tag_34:\n        /* \"#utility.yul\":1202:1223   */\n      tag_61\n        /* \"#utility.yul\":1217:1222   */\n      dup2\n        /* \"#utility.yul\":1202:1223   */\n      tag_33\n      jump\t// in\n    tag_61:\n        /* \"#utility.yul\":1197:1200   */\n      dup3\n        /* \"#utility.yul\":1190:1224   */\n      mstore\n        /* \"#utility.yul\":1121:1230   */\n      pop\n      pop\n      jump\t// out\n        /* \"#utility.yul\":1236:1446   */\n    tag_10:\n        /* \"#utility.yul\":1323:1327   */\n      0x00\n        /* \"#utility.yul\":1361:1363   */\n      0x20\n        /* \"#utility.yul\":1350:1359   */\n      dup3\n        /* \"#utility.yul\":1346:1364   */\n      add\n        /* \"#utility.yul\":1338:1364   */\n      swap1\n      pop\n        /* \"#utility.yul\":1374:1439   */\n      tag_63\n        /* \"#utility.yul\":1436:1437   */\n      0x00\n        /* \"#utility.yul\":1425:1434   */\n      dup4\n        /* \"#utility.yul\":1421:1438   */\n      add\n        /* \"#utility.yul\":1412:1418   */\n      dup5\n        /* \"#utility.yul\":1374:1439   */\n      tag_34\n      jump\t// in\n    tag_63:\n        /* \"#utility.yul\":1236:1446   */\n      swap3\n      swap2\n      pop\n      pop\n      jump\t// out\n        /* \"#utility.yul\":1452:1551   */\n    tag_35:\n        /* \"#utility.yul\":1504:1510   */\n      0x00\n        /* \"#utility.yul\":1538:1543   */\n      dup2\n        /* \"#utility.yul\":1532:1544   */\n      mload\n        /* \"#utility.yul\":1522:1544   */\n      swap1\n      pop\n        /* \"#utility.yul\":1452:1551   */\n      swap2\n      swap1\n      pop\n      jump\t// out\n        /* \"#utility.yul\":1557:1726   */\n    tag_36:\n        /* \"#utility.yul\":1641:1652   */\n      0x00\n        /* \"#utility.yul\":1675:1681   */\n      dup3\n        /* \"#utility.yul\":1670:1673   */\n      dup3\n        /* \"#utility.yul\":1663:1682   */\n      mstore\n        /* \"#utility.yul\":1715:1719   */\n      0x20\n        /* \"#utility.yul\":1710:1713   */\n      dup3\n        /* \"#utility.yul\":1706:1720   */\n      add\n        /* \"#utility.yul\":1691:1720   */\n      swap1\n      pop\n        /* \"#utility.yul\":1557:1726   */\n      swap3\n      swap2\n      pop\n      pop\n      jump\t// out\n        /* \"#utility.yul\":1732:2039   */\n    tag_37:\n        /* \"#utility.yul\":1800:1801   */\n      0x00\n        /* \"#utility.yul\":1810:1923   */\n    tag_67:\n        /* \"#utility.yul\":1824:1830   */\n      dup4\n        /* \"#utility.yul\":1821:1822   */\n      dup2\n        /* \"#utility.yul\":1818:1831   */\n      lt\n        /* \"#utility.yul\":1810:1923   */\n      iszero\n      tag_69\n      jumpi\n        /* \"#utility.yul\":1909:1910   */\n      dup1\n        /* \"#utility.yul\":1904:1907   */\n      dup3\n        /* \"#utility.yul\":1900:1911   */\n      add\n        /* \"#utility.yul\":1894:1912   */\n      mload\n        /* \"#utility.yul\":1890:1891   */\n      dup2\n        /* \"#utility.yul\":1885:1888   */\n      dup5\n        /* \"#utility.yul\":1881:1892   */\n      add\n        /* \"#utility.yul\":1874:1913   */\n      mstore\n        /* \"#utility.yul\":1846:1848   */\n      0x20\n        /* \"#utility.yul\":1843:1844   */\n      dup2\n        /* \"#utility.yul\":1839:1849   */\n      add\n        /* \"#utility.yul\":1834:1849   */\n      swap1\n      pop\n        /* \"#utility.yul\":1810:1923   */\n      jump(tag_67)\n    tag_69:\n        /* \"#utility.yul\":1941:1947   */\n      dup4\n        /* \"#utility.yul\":1938:1939   */\n      dup2\n        /* \"#utility.yul\":1935:1948   */\n      gt\n        /* \"#utility.yul\":1932:2033   */\n      iszero\n      tag_70\n      jumpi\n        /* \"#utility.yul\":2021:2022   */\n      0x00\n        /* \"#utility.yul\":2012:2018   */\n      dup5\n        /* \"#utility.yul\":2007:2010   */\n      dup5\n        /* \"#utility.yul\":2003:2019   */\n      add\n        /* \"#utility.yul\":1996:2023   */\n      mstore\n        /* \"#utility.yul\":1932:2033   */\n    tag_70:\n        /* \"#utility.yul\":1781:2039   */\n      pop\n        /* \"#utility.yul\":1732:2039   */\n      pop\n      pop\n      pop\n      jump\t// out\n        /* \"#utility.yul\":2045:2147   */\n    tag_38:\n        /* \"#utility.yul\":2086:2092   */\n      0x00\n        /* \"#utility.yul\":2137:2139   */\n      0x1f\n        /* \"#utility.yul\":2133:2140   */\n      not\n        /* \"#utility.yul\":2128:2130   */\n      0x1f\n        /* \"#utility.yul\":2121:2126   */\n      dup4\n        /* \"#utility.yul\":2117:2131   */\n      add\n        /* \"#utility.yul\":2113:2141   */\n      and\n        /* \"#utility.yul\":2103:2141   */\n      swap1\n      pop\n        /* \"#utility.yul\":2045:2147   */\n      swap2\n      swap1\n      pop\n      jump\t// out\n        /* \"#utility.yul\":2153:2517   */\n    tag_39:\n        /* \"#utility.yul\":2241:2244   */\n      0x00\n        /* \"#utility.yul\":2269:2308   */\n      tag_73\n        /* \"#utility.yul\":2302:2307   */\n      dup3\n        /* \"#utility.yul\":2269:2308   */\n      tag_35\n      jump\t// in\n    tag_73:\n        /* \"#utility.yul\":2324:2395   */\n      tag_74\n        /* \"#utility.yul\":2388:2394   */\n      dup2\n        /* \"#utility.yul\":2383:2386   */\n      dup6\n        /* \"#utility.yul\":2324:2395   */\n      tag_36\n      jump\t// in\n    tag_74:\n        /* \"#utility.yul\":2317:2395   */\n      swap4\n      pop\n        /* \"#utility.yul\":2404:2456   */\n      tag_75\n        /* \"#utility.yul\":2449:2455   */\n      dup2\n        /* \"#utility.yul\":2444:2447   */\n      dup6\n        /* \"#utility.yul\":2437:2441   */\n      0x20\n        /* \"#utility.yul\":2430:2435   */\n      dup7\n        /* \"#utility.yul\":2426:2442   */\n      add\n        /* \"#utility.yul\":2404:2456   */\n      tag_37\n      jump\t// in\n    tag_75:\n        /* \"#utility.yul\":2481:2510   */\n      tag_76\n        /* \"#utility.yul\":2503:2509   */\n      dup2\n        /* \"#utility.yul\":2481:2510   */\n      tag_38\n      jump\t// in\n    tag_76:\n        /* \"#utility.yul\":2476:2479   */\n      dup5\n        /* \"#utility.yul\":2472:2511   */\n      add\n        /* \"#utility.yul\":2465:2511   */\n      swap2\n      pop\n        /* \"#utility.yul\":2245:2517   */\n      pop\n        /* \"#utility.yul\":2153:2517   */\n      swap3\n      swap2\n      pop\n      pop\n      jump\t// out\n        /* \"#utility.yul\":2523:2836   */\n    tag_15:\n        /* \"#utility.yul\":2636:2640   */\n      0x00\n        /* \"#utility.yul\":2674:2676   */\n      0x20\n        /* \"#utility.yul\":2663:2672   */\n      dup3\n        /* \"#utility.yul\":2659:2677   */\n      add\n        /* \"#utility.yul\":2651:2677   */\n      swap1\n      pop\n        /* \"#utility.yul\":2723:2732   */\n      dup2\n        /* \"#utility.yul\":2717:2721   */\n      dup2\n        /* \"#utility.yul\":2713:2733   */\n      sub\n        /* \"#utility.yul\":2709:2710   */\n      0x00\n        /* \"#utility.yul\":2698:2707   */\n      dup4\n        /* \"#utility.yul\":2694:2711   */\n      add\n        /* \"#utility.yul\":2687:2734   */\n      mstore\n        /* \"#utility.yul\":2751:2829   */\n      tag_78\n        /* \"#utility.yul\":2824:2828   */\n      dup2\n        /* \"#utility.yul\":2815:2821   */\n      dup5\n        /* \"#utility.yul\":2751:2829   */\n      tag_39\n      jump\t// in\n    tag_78:\n        /* \"#utility.yul\":2743:2829   */\n      swap1\n      pop\n        /* \"#utility.yul\":2523:2836   */\n      swap3\n      swap2\n      pop\n      pop\n      jump\t// out\n        /* \"#utility.yul\":2842:3022   */\n    tag_40:\n        /* \"#utility.yul\":2890:2967   */\n      0x4e487b7100000000000000000000000000000000000000000000000000000000\n        /* \"#utility.yul\":2887:2888   */\n      0x00\n        /* \"#utility.yul\":2880:2968   */\n      mstore\n        /* \"#utility.yul\":2987:2991   */\n      0x12\n        /* \"#utility.yul\":2984:2985   */\n      0x04\n        /* \"#utility.yul\":2977:2992   */\n      mstore\n        /* \"#utility.yul\":3011:3015   */\n      0x24\n        /* \"#utility.yul\":3008:3009   */\n      0x00\n        /* \"#utility.yul\":3001:3016   */\n      revert\n        /* \"#utility.yul\":3028:3204   */\n    tag_18:\n        /* \"#utility.yul\":3060:3061   */\n      0x00\n        /* \"#utility.yul\":3077:3097   */\n      tag_81\n        /* \"#utility.yul\":3095:3096   */\n      dup3\n        /* \"#utility.yul\":3077:3097   */\n      tag_30\n      jump\t// in\n    tag_81:\n        /* \"#utility.yul\":3072:3097   */\n      swap2\n      pop\n        /* \"#utility.yul\":3111:3131   */\n      tag_82\n        /* \"#utility.yul\":3129:3130   */\n      dup4\n        /* \"#utility.yul\":3111:3131   */\n      tag_30\n      jump\t// in\n    tag_82:\n        /* \"#utility.yul\":3106:3131   */\n      swap3\n      pop\n        /* \"#utility.yul\":3150:3151   */\n      dup3\n        /* \"#utility.yul\":3140:3175   */\n      tag_83\n      jumpi\n        /* \"#utility.yul\":3155:3173   */\n      tag_84\n      tag_40\n      jump\t// in\n    tag_84:\n        /* \"#utility.yul\":3140:3175   */\n    tag_83:\n        /* \"#utility.yul\":3196:3197   */\n      dup3\n        /* \"#utility.yul\":3193:3194   */\n      dup3\n        /* \"#utility.yul\":3189:3198   */\n      mod\n        /* \"#utility.yul\":3184:3198   */\n      swap1\n      pop\n        /* \"#utility.yul\":3028:3204   */\n      swap3\n      swap2\n      pop\n      pop\n      jump\t// out\n        /* \"#utility.yul\":3210:3373   */\n    tag_41:\n        /* \"#utility.yul\":3350:3365   */\n      0x696e76616c69642075696e743800000000000000000000000000000000000000\n        /* \"#utility.yul\":3346:3347   */\n      0x00\n        /* \"#utility.yul\":3338:3344   */\n      dup3\n        /* \"#utility.yul\":3334:3348   */\n      add\n        /* \"#utility.yul\":3327:3366   */\n      mstore\n        /* \"#utility.yul\":3210:3373   */\n      pop\n      jump\t// out\n        /* \"#utility.yul\":3379:3745   */\n    tag_42:\n        /* \"#utility.yul\":3521:3524   */\n      0x00\n        /* \"#utility.yul\":3542:3609   */\n      tag_87\n        /* \"#utility.yul\":3606:3608   */\n      0x0d\n        /* \"#utility.yul\":3601:3604   */\n      dup4\n        /* \"#utility.yul\":3542:3609   */\n      tag_36\n      jump\t// in\n    tag_87:\n        /* \"#utility.yul\":3535:3609   */\n      swap2\n      pop\n        /* \"#utility.yul\":3618:3711   */\n      tag_88\n        /* \"#utility.yul\":3707:3710   */\n      dup3\n        /* \"#utility.yul\":3618:3711   */\n      tag_41\n      jump\t// in\n    tag_88:\n        /* \"#utility.yul\":3736:3738   */\n      0x20\n        /* \"#utility.yul\":3731:3734   */\n      dup3\n        /* \"#utility.yul\":3727:3739   */\n      add\n        /* \"#utility.yul\":3720:3739   */\n      swap1\n      pop\n        /* \"#utility.yul\":3379:3745   */\n      swap2\n      swap1\n      pop\n      jump\t// out\n        /* \"#utility.yul\":3751:4170   */\n    tag_23:\n        /* \"#utility.yul\":3917:3921   */\n      0x00\n        /* \"#utility.yul\":3955:3957   */\n      0x20\n        /* \"#utility.yul\":3944:3953   */\n      dup3\n        /* \"#utility.yul\":3940:3958   */\n      add\n        /* \"#utility.yul\":3932:3958   */\n      swap1\n      pop\n        /* \"#utility.yul\":4004:4013   */\n      dup2\n        /* \"#utility.yul\":3998:4002   */\n      dup2\n        /* \"#utility.yul\":3994:4014   */\n      sub\n        /* \"#utility.yul\":3990:3991   */\n      0x00\n        /* \"#utility.yul\":3979:3988   */\n      dup4\n        /* \"#utility.yul\":3975:3992   */\n      add\n        /* \"#utility.yul\":3968:4015   */\n      mstore\n        /* \"#utility.yul\":4032:4163   */\n      tag_90\n        /* \"#utility.yul\":4158:4162   */\n      dup2\n        /* \"#utility.yul\":4032:4163   */\n      tag_42\n      jump\t// in\n    tag_90:\n        /* \"#utility.yul\":4024:4163   */\n      swap1\n      pop\n        /* \"#utility.yul\":3751:4170   */\n      swap2\n      swap1\n      pop\n      jump\t// out\n        /* \"#utility.yul\":4176:4338   */\n    tag_43:\n        /* \"#utility.yul\":4316:4330   */\n      0x696e76616c69642075696e740000000000000000000000000000000000000000\n        /* \"#utility.yul\":4312:4313   */\n      0x00\n        /* \"#utility.yul\":4304:4310   */\n      dup3\n        /* \"#utility.yul\":4300:4314   */\n      add\n        /* \"#utility.yul\":4293:4331   */\n      mstore\n        /* \"#utility.yul\":4176:4338   */\n      pop\n      jump\t// out\n        /* \"#utility.yul\":4344:4710   */\n    tag_44:\n        /* \"#utility.yul\":4486:4489   */\n      0x00\n        /* \"#utility.yul\":4507:4574   */\n      tag_93\n        /* \"#utility.yul\":4571:4573   */\n      0x0c\n        /* \"#utility.yul\":4566:4569   */\n      dup4\n        /* \"#utility.yul\":4507:4574   */\n      tag_36\n      jump\t// in\n    tag_93:\n        /* \"#utility.yul\":4500:4574   */\n      swap2\n      pop\n        /* \"#utility.yul\":4583:4676   */\n      tag_94\n        /* \"#utility.yul\":4672:4675   */\n      dup3\n        /* \"#utility.yul\":4583:4676   */\n      tag_43\n      jump\t// in\n    tag_94:\n        /* \"#utility.yul\":4701:4703   */\n      0x20\n        /* \"#utility.yul\":4696:4699   */\n      dup3\n        /* \"#utility.yul\":4692:4704   */\n      add\n        /* \"#utility.yul\":4685:4704   */\n      swap1\n      pop\n        /* \"#utility.yul\":4344:4710   */\n      swap2\n      swap1\n      pop\n      jump\t// out\n        /* \"#utility.yul\":4716:5135   */\n    tag_26:\n        /* \"#utility.yul\":4882:4886   */\n      0x00\n        /* \"#utility.yul\":4920:4922   */\n      0x20\n        /* \"#utility.yul\":4909:4918   */\n      dup3\n        /* \"#utility.yul\":4905:4923   */\n      add\n        /* \"#utility.yul\":4897:4923   */\n      swap1\n      pop\n        /* \"#utility.yul\":4969:4978   */\n      dup2\n        /* \"#utility.yul\":4963:4967   */\n      dup2\n        /* \"#utility.yul\":4959:4979   */\n      sub\n        /* \"#utility.yul\":4955:4956   */\n      0x00\n        /* \"#utility.yul\":4944:4953   */\n      dup4\n        /* \"#utility.yul\":4940:4957   */\n      add\n        /* \"#utility.yul\":4933:4980   */\n      mstore\n        /* \"#utility.yul\":4997:5128   */\n      tag_96\n        /* \"#utility.yul\":5123:5127   */\n      dup2\n        /* \"#utility.yul\":4997:5128   */\n      tag_44\n      jump\t// in\n    tag_96:\n        /* \"#utility.yul\":4989:5128   */\n      swap1\n      pop\n        /* \"#utility.yul\":4716:5135   */\n      swap2\n      swap1\n      pop\n      jump\t// out\n\n    auxdata: 0xa2646970667358221220141f09fbde5d234dc56092b8ed34e5a0de10d212401b7acf1dcb5f271df635aa64736f6c634300080d0033\n}\n",
				"bytecode": {
					"linkReferences": {},
					"object": "608060405234801561001057600080fd5b5061044c806100206000396000f3fe608060405234801561001057600080fd5b50600436106100365760003560e01c80630602c36a1461003b5780635f72f4501461006b575b600080fd5b610055600480360381019061005091906101c0565b61009b565b6040516100629190610208565b60405180910390f35b610085600480360381019061008091906101c0565b6100be565b60405161009291906102bc565b60405180910390f35b6000806002836100ab919061030d565b036100b557600080fd5b60019050919050565b60606000821015610104576040517f08c379a00000000000000000000000000000000000000000000000000000000081526004016100fb9061038a565b60405180910390fd5b60ff821115610148576040517f08c379a000000000000000000000000000000000000000000000000000000000815260040161013f906103f6565b60405180910390fd5b6040518060400160405280600e81526020017f696e7075742069732075696e74380000000000000000000000000000000000008152509050919050565b600080fd5b6000819050919050565b61019d8161018a565b81146101a857600080fd5b50565b6000813590506101ba81610194565b92915050565b6000602082840312156101d6576101d5610185565b5b60006101e4848285016101ab565b91505092915050565b60008115159050919050565b610202816101ed565b82525050565b600060208201905061021d60008301846101f9565b92915050565b600081519050919050565b600082825260208201905092915050565b60005b8381101561025d578082015181840152602081019050610242565b8381111561026c576000848401525b50505050565b6000601f19601f8301169050919050565b600061028e82610223565b610298818561022e565b93506102a881856020860161023f565b6102b181610272565b840191505092915050565b600060208201905081810360008301526102d68184610283565b905092915050565b7f4e487b7100000000000000000000000000000000000000000000000000000000600052601260045260246000fd5b60006103188261018a565b91506103238361018a565b925082610333576103326102de565b5b828206905092915050565b7f696e76616c69642075696e743800000000000000000000000000000000000000600082015250565b6000610374600d8361022e565b915061037f8261033e565b602082019050919050565b600060208201905081810360008301526103a381610367565b9050919050565b7f696e76616c69642075696e740000000000000000000000000000000000000000600082015250565b60006103e0600c8361022e565b91506103eb826103aa565b602082019050919050565b6000602082019050818103600083015261040f816103d3565b905091905056fea2646970667358221220141f09fbde5d234dc56092b8ed34e5a0de10d212401b7acf1dcb5f271df635aa64736f6c634300080d0033",
					"opcodes": "PUSH1 0x80 PUSH1 0x40 MSTORE CALLVALUE DUP1 ISZERO PUSH2 0x10 JUMPI PUSH1 0x0 DUP1 REVERT JUMPDEST POP PUSH2 0x44C DUP1 PUSH2 0x20 PUSH1 0x0 CODECOPY PUSH1 0x0 RETURN INVALID PUSH1 0x80 PUSH1 0x40 MSTORE CALLVALUE DUP1 ISZERO PUSH2 0x10 JUMPI PUSH1 0x0 DUP1 REVERT JUMPDEST POP PUSH1 0x4 CALLDATASIZE LT PUSH2 0x36 JUMPI PUSH1 0x0 CALLDATALOAD PUSH1 0xE0 SHR DUP1 PUSH4 0x602C36A EQ PUSH2 0x3B JUMPI DUP1 PUSH4 0x5F72F450 EQ PUSH2 0x6B JUMPI JUMPDEST PUSH1 0x0 DUP1 REVERT JUMPDEST PUSH2 0x55 PUSH1 0x4 DUP1 CALLDATASIZE SUB DUP2 ADD SWAP1 PUSH2 0x50 SWAP2 SWAP1 PUSH2 0x1C0 JUMP JUMPDEST PUSH2 0x9B JUMP JUMPDEST PUSH1 0x40 MLOAD PUSH2 0x62 SWAP2 SWAP1 PUSH2 0x208 JUMP JUMPDEST PUSH1 0x40 MLOAD DUP1 SWAP2 SUB SWAP1 RETURN JUMPDEST PUSH2 0x85 PUSH1 0x4 DUP1 CALLDATASIZE SUB DUP2 ADD SWAP1 PUSH2 0x80 SWAP2 SWAP1 PUSH2 0x1C0 JUMP JUMPDEST PUSH2 0xBE JUMP JUMPDEST PUSH1 0x40 MLOAD PUSH2 0x92 SWAP2 SWAP1 PUSH2 0x2BC JUMP JUMPDEST PUSH1 0x40 MLOAD DUP1 SWAP2 SUB SWAP1 RETURN JUMPDEST PUSH1 0x0 DUP1 PUSH1 0x2 DUP4 PUSH2 0xAB SWAP2 SWAP1 PUSH2 0x30D JUMP JUMPDEST SUB PUSH2 0xB5 JUMPI PUSH1 0x0 DUP1 REVERT JUMPDEST PUSH1 0x1 SWAP1 POP SWAP2 SWAP1 POP JUMP JUMPDEST PUSH1 0x60 PUSH1 0x0 DUP3 LT ISZERO PUSH2 0x104 JUMPI PUSH1 0x40 MLOAD PUSH32 0x8C379A000000000000000000000000000000000000000000000000000000000 DUP2 MSTORE PUSH1 0x4 ADD PUSH2 0xFB SWAP1 PUSH2 0x38A JUMP JUMPDEST PUSH1 0x40 MLOAD DUP1 SWAP2 SUB SWAP1 REVERT JUMPDEST PUSH1 0xFF DUP3 GT ISZERO PUSH2 0x148 JUMPI PUSH1 0x40 MLOAD PUSH32 0x8C379A000000000000000000000000000000000000000000000000000000000 DUP2 MSTORE PUSH1 0x4 ADD PUSH2 0x13F SWAP1 PUSH2 0x3F6 JUMP JUMPDEST PUSH1 0x40 MLOAD DUP1 SWAP2 SUB SWAP1 REVERT JUMPDEST PUSH1 0x40 MLOAD DUP1 PUSH1 0x40 ADD PUSH1 0x40 MSTORE DUP1 PUSH1 0xE DUP2 MSTORE PUSH1 0x20 ADD PUSH32 0x696E7075742069732075696E7438000000000000000000000000000000000000 DUP2 MSTORE POP SWAP1 POP SWAP2 SWAP1 POP JUMP JUMPDEST PUSH1 0x0 DUP1 REVERT JUMPDEST PUSH1 0x0 DUP2 SWAP1 POP SWAP2 SWAP1 POP JUMP JUMPDEST PUSH2 0x19D DUP2 PUSH2 0x18A JUMP JUMPDEST DUP2 EQ PUSH2 0x1A8 JUMPI PUSH1 0x0 DUP1 REVERT JUMPDEST POP JUMP JUMPDEST PUSH1 0x0 DUP2 CALLDATALOAD SWAP1 POP PUSH2 0x1BA DUP2 PUSH2 0x194 JUMP JUMPDEST SWAP3 SWAP2 POP POP JUMP JUMPDEST PUSH1 0x0 PUSH1 0x20 DUP3 DUP5 SUB SLT ISZERO PUSH2 0x1D6 JUMPI PUSH2 0x1D5 PUSH2 0x185 JUMP JUMPDEST JUMPDEST PUSH1 0x0 PUSH2 0x1E4 DUP5 DUP3 DUP6 ADD PUSH2 0x1AB JUMP JUMPDEST SWAP2 POP POP SWAP3 SWAP2 POP POP JUMP JUMPDEST PUSH1 0x0 DUP2 ISZERO ISZERO SWAP1 POP SWAP2 SWAP1 POP JUMP JUMPDEST PUSH2 0x202 DUP2 PUSH2 0x1ED JUMP JUMPDEST DUP3 MSTORE POP POP JUMP JUMPDEST PUSH1 0x0 PUSH1 0x20 DUP3 ADD SWAP1 POP PUSH2 0x21D PUSH1 0x0 DUP4 ADD DUP5 PUSH2 0x1F9 JUMP JUMPDEST SWAP3 SWAP2 POP POP JUMP JUMPDEST PUSH1 0x0 DUP2 MLOAD SWAP1 POP SWAP2 SWAP1 POP JUMP JUMPDEST PUSH1 0x0 DUP3 DUP3 MSTORE PUSH1 0x20 DUP3 ADD SWAP1 POP SWAP3 SWAP2 POP POP JUMP JUMPDEST PUSH1 0x0 JUMPDEST DUP4 DUP2 LT ISZERO PUSH2 0x25D JUMPI DUP1 DUP3 ADD MLOAD DUP2 DUP5 ADD MSTORE PUSH1 0x20 DUP2 ADD SWAP1 POP PUSH2 0x242 JUMP JUMPDEST DUP4 DUP2 GT ISZERO PUSH2 0x26C JUMPI PUSH1 0x0 DUP5 DUP5 ADD MSTORE JUMPDEST POP POP POP POP JUMP JUMPDEST PUSH1 0x0 PUSH1 0x1F NOT PUSH1 0x1F DUP4 ADD AND SWAP1 POP SWAP2 SWAP1 POP JUMP JUMPDEST PUSH1 0x0 PUSH2 0x28E DUP3 PUSH2 0x223 JUMP JUMPDEST PUSH2 0x298 DUP2 DUP6 PUSH2 0x22E JUMP JUMPDEST SWAP4 POP PUSH2 0x2A8 DUP2 DUP6 PUSH1 0x20 DUP7 ADD PUSH2 0x23F JUMP JUMPDEST PUSH2 0x2B1 DUP2 PUSH2 0x272 JUMP JUMPDEST DUP5 ADD SWAP2 POP POP SWAP3 SWAP2 POP POP JUMP JUMPDEST PUSH1 0x0 PUSH1 0x20 DUP3 ADD SWAP1 POP DUP2 DUP2 SUB PUSH1 0x0 DUP4 ADD MSTORE PUSH2 0x2D6 DUP2 DUP5 PUSH2 0x283 JUMP JUMPDEST SWAP1 POP SWAP3 SWAP2 POP POP JUMP JUMPDEST PUSH32 0x4E487B7100000000000000000000000000000000000000000000000000000000 PUSH1 0x0 MSTORE PUSH1 0x12 PUSH1 0x4 MSTORE PUSH1 0x24 PUSH1 0x0 REVERT JUMPDEST PUSH1 0x0 PUSH2 0x318 DUP3 PUSH2 0x18A JUMP JUMPDEST SWAP2 POP PUSH2 0x323 DUP4 PUSH2 0x18A JUMP JUMPDEST SWAP3 POP DUP3 PUSH2 0x333 JUMPI PUSH2 0x332 PUSH2 0x2DE JUMP JUMPDEST JUMPDEST DUP3 DUP3 MOD SWAP1 POP SWAP3 SWAP2 POP POP JUMP JUMPDEST PUSH32 0x696E76616C69642075696E743800000000000000000000000000000000000000 PUSH1 0x0 DUP3 ADD MSTORE POP JUMP JUMPDEST PUSH1 0x0 PUSH2 0x374 PUSH1 0xD DUP4 PUSH2 0x22E JUMP JUMPDEST SWAP2 POP PUSH2 0x37F DUP3 PUSH2 0x33E JUMP JUMPDEST PUSH1 0x20 DUP3 ADD SWAP1 POP SWAP2 SWAP1 POP JUMP JUMPDEST PUSH1 0x0 PUSH1 0x20 DUP3 ADD SWAP1 POP DUP2 DUP2 SUB PUSH1 0x0 DUP4 ADD MSTORE PUSH2 0x3A3 DUP2 PUSH2 0x367 JUMP JUMPDEST SWAP1 POP SWAP2 SWAP1 POP JUMP JUMPDEST PUSH32 0x696E76616C69642075696E740000000000000000000000000000000000000000 PUSH1 0x0 DUP3 ADD MSTORE POP JUMP JUMPDEST PUSH1 0x0 PUSH2 0x3E0 PUSH1 0xC DUP4 PUSH2 0x22E JUMP JUMPDEST SWAP2 POP PUSH2 0x3EB DUP3 PUSH2 0x3AA JUMP JUMPDEST PUSH1 0x20 DUP3 ADD SWAP1 POP SWAP2 SWAP1 POP JUMP JUMPDEST PUSH1 0x0 PUSH1 0x20 DUP3 ADD SWAP1 POP DUP2 DUP2 SUB PUSH1 0x0 DUP4 ADD MSTORE PUSH2 0x40F DUP2 PUSH2 0x3D3 JUMP JUMPDEST SWAP1 POP SWAP2 SWAP1 POP JUMP INVALID LOG2 PUSH5 0x6970667358 0x22 SLT KECCAK256 EQ 0x1F MULMOD 0xFB 0xDE 0x5D 0x23 0x4D 0xC5 PUSH1 0x92 0xB8 0xED CALLVALUE 0xE5 LOG0 0xDE LT 0xD2 SLT BLOCKHASH SHL PUSH27 0xCF1DCB5F271DF635AA64736F6C634300080D003300000000000000 "
				},
				"gasEstimates": {
					"creation": {
						"codeDepositCost": "220000",
						"executionCost": "263",
						"totalCost": "220263"
					},
					"external": {
						"check(uint256)": "infinite",
						"odd(uint256)": "infinite"
					}
				},
				"methodIdentifiers": {
					"check(uint256)": "5f72f450",
					"odd(uint256)": "0602c36a"
				}
			},
			"storageLayout": {
				"storage": [],
				"types": null
			},
			"userdoc": {
				"kind": "user",
				"methods": {},
				"version": 1
			}
		}
	}
}