{
	"contract/function.sol": {
		"Functions": {
			"abi": [
				{
					"inputs": [
						{
							"internalType": "uint256[]",
							"name": "_arr",
							"type": "uint256[]"
						}
					],
					"name": "arrayInput",
					"outputs": [],
					"stateMutability": "nonpayable",
					"type": "function"
				},
				{
					"inputs": [],
					"name": "arrayOutput",
					"outputs": [
						{
							"internalType": "uint256[]",
							"name": "",
							"type": "uint256[]"
						}
					],
					"stateMutability": "view",
					"type": "function"
				},
				{
					"inputs": [],
					"name": "assigned",
					"outputs": [
						{
							"internalType": "uint256",
							"name": "x",
							"type": "uint256"
						},
						{
							"internalType": "bool",
							"name": "b",
							"type": "bool"
						},
						{
							"internalType": "uint256",
							"name": "y",
							"type": "uint256"
						}
					],
					"stateMutability": "pure",
					"type": "function"
				},
				{
					"inputs": [],
					"name": "destructuringAssignment",
					"outputs": [
						{
							"internalType": "uint256",
							"name": "",
							"type": "uint256"
						},
						{
							"internalType": "bool",
							"name": "",
							"type": "bool"
						},
						{
							"internalType": "uint256",
							"name": "",
							"type": "uint256"
						},
						{
							"internalType": "uint256",
							"name": "",
							"type": "uint256"
						},
						{
							"internalType": "uint256",
							"name": "",
							"type": "uint256"
						}
					],
					"stateMutability": "pure",
					"type": "function"
				},
				{
					"inputs": [],
					"name": "named",
					"outputs": [
						{
							"internalType": "uint256",
							"name": "x",
							"type": "uint256"
						},
						{
							"internalType": "bool",
							"name": "b",
							"type": "bool"
						},
						{
							"internalType": "uint256",
							"name": "y",
							"type": "uint256"
						}
					],
					"stateMutability": "pure",
					"type": "function"
				},
				{
					"inputs": [],
					"name": "returnMany",
					"outputs": [
						{
							"internalType": "uint256",
							"name": "",
							"type": "uint256"
						},
						{
							"internalType": "bool",
							"name": "",
							"type": "bool"
						},
						{
							"internalType": "uint256",
							"name": "",
							"type": "uint256"
						}
					],
					"stateMutability": "pure",
					"type": "function"
				}
			],
			"devdoc": {
				"kind": "dev",
				"methods": {},
				"version": 1
			},
			"evm": {
				"assembly": "    /* \"contract/function.sol\":58:1606  contract Functions {... */\n  mstore(0x40, 0x80)\n  callvalue\n  dup1\n  iszero\n  tag_1\n  jumpi\n  0x00\n  dup1\n  revert\ntag_1:\n  pop\n  dataSize(sub_0)\n  dup1\n  dataOffset(sub_0)\n  0x00\n  codecopy\n  0x00\n  return\nstop\n\nsub_0: assembly {\n        /* \"contract/function.sol\":58:1606  contract Functions {... */\n      mstore(0x40, 0x80)\n      callvalue\n      dup1\n      iszero\n      tag_1\n      jumpi\n      0x00\n      dup1\n      revert\n    tag_1:\n      pop\n      jumpi(tag_2, lt(calldatasize, 0x04))\n      shr(0xe0, calldataload(0x00))\n      dup1\n      0x1990532b\n      eq\n      tag_3\n      jumpi\n      dup1\n      0x343a6f93\n      eq\n      tag_4\n      jumpi\n      dup1\n      0x45f907a8\n      eq\n      tag_5\n      jumpi\n      dup1\n      0x86887544\n      eq\n      tag_6\n      jumpi\n      dup1\n      0xadb4d990\n      eq\n      tag_7\n      jumpi\n      dup1\n      0xf4bb6e6b\n      eq\n      tag_8\n      jumpi\n    tag_2:\n      0x00\n      dup1\n      revert\n        /* \"contract/function.sol\":1515:1604  function arrayOutput() public view returns (uint256[] memory) {... */\n    tag_3:\n      tag_9\n      tag_10\n      jump\t// in\n    tag_9:\n      mload(0x40)\n      tag_11\n      swap2\n      swap1\n      tag_12\n      jump\t// in\n    tag_11:\n      mload(0x40)\n      dup1\n      swap2\n      sub\n      swap1\n      return\n        /* \"contract/function.sol\":963:1335  function destructuringAssignment()... */\n    tag_4:\n      tag_13\n      tag_14\n      jump\t// in\n    tag_13:\n      mload(0x40)\n      tag_15\n      swap6\n      swap5\n      swap4\n      swap3\n      swap2\n      swap1\n      tag_16\n      jump\t// in\n    tag_15:\n      mload(0x40)\n      dup1\n      swap2\n      sub\n      swap1\n      return\n        /* \"contract/function.sol\":360:540  function named()... */\n    tag_5:\n      tag_17\n      tag_18\n      jump\t// in\n    tag_17:\n      mload(0x40)\n      tag_19\n      swap4\n      swap3\n      swap2\n      swap1\n      tag_20\n      jump\t// in\n    tag_19:\n      mload(0x40)\n      dup1\n      swap2\n      sub\n      swap1\n      return\n        /* \"contract/function.sol\":148:325  function returnMany()... */\n    tag_6:\n      tag_21\n      tag_22\n      jump\t// in\n    tag_21:\n      mload(0x40)\n      tag_23\n      swap4\n      swap3\n      swap2\n      swap1\n      tag_20\n      jump\t// in\n    tag_23:\n      mload(0x40)\n      dup1\n      swap2\n      sub\n      swap1\n      return\n        /* \"contract/function.sol\":650:851  function assigned()... */\n    tag_7:\n      tag_24\n      tag_25\n      jump\t// in\n    tag_24:\n      mload(0x40)\n      tag_26\n      swap4\n      swap3\n      swap2\n      swap1\n      tag_20\n      jump\t// in\n    tag_26:\n      mload(0x40)\n      dup1\n      swap2\n      sub\n      swap1\n      return\n        /* \"contract/function.sol\":1425:1477  function arrayInput(uint256[] memory _arr) public {} */\n    tag_8:\n      tag_27\n      0x04\n      dup1\n      calldatasize\n      sub\n      dup2\n      add\n      swap1\n      tag_28\n      swap2\n      swap1\n      tag_29\n      jump\t// in\n    tag_28:\n      tag_30\n      jump\t// in\n    tag_27:\n      stop\n        /* \"contract/function.sol\":1515:1604  function arrayOutput() public view returns (uint256[] memory) {... */\n    tag_10:\n        /* \"contract/function.sol\":1559:1575  uint256[] memory */\n      0x60\n        /* \"contract/function.sol\":1594:1597  arr */\n      0x00\n        /* \"contract/function.sol\":1587:1597  return arr */\n      dup1\n      sload\n      dup1\n      0x20\n      mul\n      0x20\n      add\n      mload(0x40)\n      swap1\n      dup2\n      add\n      0x40\n      mstore\n      dup1\n      swap3\n      swap2\n      swap1\n      dup2\n      dup2\n      mstore\n      0x20\n      add\n      dup3\n      dup1\n      sload\n      dup1\n      iszero\n      tag_32\n      jumpi\n      0x20\n      mul\n      dup3\n      add\n      swap2\n      swap1\n      0x00\n      mstore\n      keccak256(0x00, 0x20)\n      swap1\n    tag_33:\n      dup2\n      sload\n      dup2\n      mstore\n      0x20\n      add\n      swap1\n      0x01\n      add\n      swap1\n      dup1\n      dup4\n      gt\n      tag_33\n      jumpi\n    tag_32:\n      pop\n      pop\n      pop\n      pop\n      pop\n      swap1\n      pop\n        /* \"contract/function.sol\":1515:1604  function arrayOutput() public view returns (uint256[] memory) {... */\n      swap1\n      jump\t// out\n        /* \"contract/function.sol\":963:1335  function destructuringAssignment()... */\n    tag_14:\n        /* \"contract/function.sol\":1056:1063  uint256 */\n      0x00\n        /* \"contract/function.sol\":1077:1081  bool */\n      dup1\n        /* \"contract/function.sol\":1095:1102  uint256 */\n      0x00\n        /* \"contract/function.sol\":1116:1123  uint256 */\n      dup1\n        /* \"contract/function.sol\":1137:1144  uint256 */\n      0x00\n        /* \"contract/function.sol\":1170:1179  uint256 i */\n      dup1\n        /* \"contract/function.sol\":1181:1187  bool b */\n      0x00\n        /* \"contract/function.sol\":1189:1198  uint256 j */\n      dup1\n        /* \"contract/function.sol\":1202:1214  returnMany() */\n      tag_35\n        /* \"contract/function.sol\":1202:1212  returnMany */\n      tag_22\n        /* \"contract/function.sol\":1202:1214  returnMany() */\n      jump\t// in\n    tag_35:\n        /* \"contract/function.sol\":1169:1214  (uint256 i, bool b, uint256 j) = returnMany() */\n      swap3\n      pop\n      swap3\n      pop\n      swap3\n      pop\n        /* \"contract/function.sol\":1260:1269  uint256 x */\n      0x00\n        /* \"contract/function.sol\":1273:1282  uint256 y */\n      dup1\n        /* \"contract/function.sol\":1287:1288  4 */\n      0x04\n        /* \"contract/function.sol\":1290:1291  5 */\n      0x05\n        /* \"contract/function.sol\":1293:1294  6 */\n      0x06\n        /* \"contract/function.sol\":1259:1295  (uint256 x, , uint256 y) = (4, 5, 6) */\n      swap3\n      pop\n      pop\n      swap2\n      pop\n        /* \"contract/function.sol\":1314:1315  i */\n      dup5\n        /* \"contract/function.sol\":1317:1318  b */\n      dup5\n        /* \"contract/function.sol\":1320:1321  j */\n      dup5\n        /* \"contract/function.sol\":1323:1324  x */\n      dup5\n        /* \"contract/function.sol\":1326:1327  y */\n      dup5\n        /* \"contract/function.sol\":1306:1328  return (i, b, j, x, y) */\n      swap10\n      pop\n      swap10\n      pop\n      swap10\n      pop\n      swap10\n      pop\n      swap10\n      pop\n      pop\n      pop\n      pop\n      pop\n      pop\n        /* \"contract/function.sol\":963:1335  function destructuringAssignment()... */\n      swap1\n      swap2\n      swap3\n      swap4\n      swap5\n      jump\t// out\n        /* \"contract/function.sol\":360:540  function named()... */\n    tag_18:\n        /* \"contract/function.sol\":435:444  uint256 x */\n      0x00\n        /* \"contract/function.sol\":458:464  bool b */\n      dup1\n        /* \"contract/function.sol\":478:487  uint256 y */\n      0x00\n        /* \"contract/function.sol\":520:521  1 */\n      0x01\n        /* \"contract/function.sol\":523:528  false */\n      0x00\n        /* \"contract/function.sol\":530:532  10 */\n      0x0a\n        /* \"contract/function.sol\":512:533  return (1, false, 10) */\n      swap3\n      pop\n      swap3\n      pop\n      swap3\n      pop\n        /* \"contract/function.sol\":360:540  function named()... */\n      swap1\n      swap2\n      swap3\n      jump\t// out\n        /* \"contract/function.sol\":148:325  function returnMany()... */\n    tag_22:\n        /* \"contract/function.sol\":228:235  uint256 */\n      0x00\n        /* \"contract/function.sol\":249:253  bool */\n      dup1\n        /* \"contract/function.sol\":267:274  uint256 */\n      0x00\n        /* \"contract/function.sol\":307:308  1 */\n      0x01\n        /* \"contract/function.sol\":310:314  true */\n      dup1\n        /* \"contract/function.sol\":316:317  5 */\n      0x05\n        /* \"contract/function.sol\":299:318  return (1, true, 5) */\n      swap3\n      pop\n      swap3\n      pop\n      swap3\n      pop\n        /* \"contract/function.sol\":148:325  function returnMany()... */\n      swap1\n      swap2\n      swap3\n      jump\t// out\n        /* \"contract/function.sol\":650:851  function assigned()... */\n    tag_25:\n        /* \"contract/function.sol\":728:737  uint256 x */\n      0x00\n        /* \"contract/function.sol\":751:757  bool b */\n      dup1\n        /* \"contract/function.sol\":771:780  uint256 y */\n      0x00\n        /* \"contract/function.sol\":809:810  1 */\n      0x01\n        /* \"contract/function.sol\":805:810  x = 1 */\n      swap3\n      pop\n        /* \"contract/function.sol\":824:828  true */\n      0x01\n        /* \"contract/function.sol\":820:828  b = true */\n      swap2\n      pop\n        /* \"contract/function.sol\":842:844  20 */\n      0x14\n        /* \"contract/function.sol\":838:844  y = 20 */\n      swap1\n      pop\n        /* \"contract/function.sol\":650:851  function assigned()... */\n      swap1\n      swap2\n      swap3\n      jump\t// out\n        /* \"contract/function.sol\":1425:1477  function arrayInput(uint256[] memory _arr) public {} */\n    tag_30:\n      pop\n      jump\t// out\n        /* \"#utility.yul\":7:121   */\n    tag_40:\n        /* \"#utility.yul\":74:80   */\n      0x00\n        /* \"#utility.yul\":108:113   */\n      dup2\n        /* \"#utility.yul\":102:114   */\n      mload\n        /* \"#utility.yul\":92:114   */\n      swap1\n      pop\n        /* \"#utility.yul\":7:121   */\n      swap2\n      swap1\n      pop\n      jump\t// out\n        /* \"#utility.yul\":127:311   */\n    tag_41:\n        /* \"#utility.yul\":226:237   */\n      0x00\n        /* \"#utility.yul\":260:266   */\n      dup3\n        /* \"#utility.yul\":255:258   */\n      dup3\n        /* \"#utility.yul\":248:267   */\n      mstore\n        /* \"#utility.yul\":300:304   */\n      0x20\n        /* \"#utility.yul\":295:298   */\n      dup3\n        /* \"#utility.yul\":291:305   */\n      add\n        /* \"#utility.yul\":276:305   */\n      swap1\n      pop\n        /* \"#utility.yul\":127:311   */\n      swap3\n      swap2\n      pop\n      pop\n      jump\t// out\n        /* \"#utility.yul\":317:449   */\n    tag_42:\n        /* \"#utility.yul\":384:388   */\n      0x00\n        /* \"#utility.yul\":407:410   */\n      dup2\n        /* \"#utility.yul\":399:410   */\n      swap1\n      pop\n        /* \"#utility.yul\":437:441   */\n      0x20\n        /* \"#utility.yul\":432:435   */\n      dup3\n        /* \"#utility.yul\":428:442   */\n      add\n        /* \"#utility.yul\":420:442   */\n      swap1\n      pop\n        /* \"#utility.yul\":317:449   */\n      swap2\n      swap1\n      pop\n      jump\t// out\n        /* \"#utility.yul\":455:532   */\n    tag_43:\n        /* \"#utility.yul\":492:499   */\n      0x00\n        /* \"#utility.yul\":521:526   */\n      dup2\n        /* \"#utility.yul\":510:526   */\n      swap1\n      pop\n        /* \"#utility.yul\":455:532   */\n      swap2\n      swap1\n      pop\n      jump\t// out\n        /* \"#utility.yul\":538:646   */\n    tag_44:\n        /* \"#utility.yul\":615:639   */\n      tag_71\n        /* \"#utility.yul\":633:638   */\n      dup2\n        /* \"#utility.yul\":615:639   */\n      tag_43\n      jump\t// in\n    tag_71:\n        /* \"#utility.yul\":610:613   */\n      dup3\n        /* \"#utility.yul\":603:640   */\n      mstore\n        /* \"#utility.yul\":538:646   */\n      pop\n      pop\n      jump\t// out\n        /* \"#utility.yul\":652:831   */\n    tag_45:\n        /* \"#utility.yul\":721:731   */\n      0x00\n        /* \"#utility.yul\":742:788   */\n      tag_73\n        /* \"#utility.yul\":784:787   */\n      dup4\n        /* \"#utility.yul\":776:782   */\n      dup4\n        /* \"#utility.yul\":742:788   */\n      tag_44\n      jump\t// in\n    tag_73:\n        /* \"#utility.yul\":820:824   */\n      0x20\n        /* \"#utility.yul\":815:818   */\n      dup4\n        /* \"#utility.yul\":811:825   */\n      add\n        /* \"#utility.yul\":797:825   */\n      swap1\n      pop\n        /* \"#utility.yul\":652:831   */\n      swap3\n      swap2\n      pop\n      pop\n      jump\t// out\n        /* \"#utility.yul\":837:950   */\n    tag_46:\n        /* \"#utility.yul\":907:911   */\n      0x00\n        /* \"#utility.yul\":939:943   */\n      0x20\n        /* \"#utility.yul\":934:937   */\n      dup3\n        /* \"#utility.yul\":930:944   */\n      add\n        /* \"#utility.yul\":922:944   */\n      swap1\n      pop\n        /* \"#utility.yul\":837:950   */\n      swap2\n      swap1\n      pop\n      jump\t// out\n        /* \"#utility.yul\":986:1718   */\n    tag_47:\n        /* \"#utility.yul\":1105:1108   */\n      0x00\n        /* \"#utility.yul\":1134:1188   */\n      tag_76\n        /* \"#utility.yul\":1182:1187   */\n      dup3\n        /* \"#utility.yul\":1134:1188   */\n      tag_40\n      jump\t// in\n    tag_76:\n        /* \"#utility.yul\":1204:1290   */\n      tag_77\n        /* \"#utility.yul\":1283:1289   */\n      dup2\n        /* \"#utility.yul\":1278:1281   */\n      dup6\n        /* \"#utility.yul\":1204:1290   */\n      tag_41\n      jump\t// in\n    tag_77:\n        /* \"#utility.yul\":1197:1290   */\n      swap4\n      pop\n        /* \"#utility.yul\":1314:1370   */\n      tag_78\n        /* \"#utility.yul\":1364:1369   */\n      dup4\n        /* \"#utility.yul\":1314:1370   */\n      tag_42\n      jump\t// in\n    tag_78:\n        /* \"#utility.yul\":1393:1400   */\n      dup1\n        /* \"#utility.yul\":1424:1425   */\n      0x00\n        /* \"#utility.yul\":1409:1693   */\n    tag_79:\n        /* \"#utility.yul\":1434:1440   */\n      dup4\n        /* \"#utility.yul\":1431:1432   */\n      dup2\n        /* \"#utility.yul\":1428:1441   */\n      lt\n        /* \"#utility.yul\":1409:1693   */\n      iszero\n      tag_81\n      jumpi\n        /* \"#utility.yul\":1510:1516   */\n      dup2\n        /* \"#utility.yul\":1504:1517   */\n      mload\n        /* \"#utility.yul\":1537:1600   */\n      tag_82\n        /* \"#utility.yul\":1596:1599   */\n      dup9\n        /* \"#utility.yul\":1581:1594   */\n      dup3\n        /* \"#utility.yul\":1537:1600   */\n      tag_45\n      jump\t// in\n    tag_82:\n        /* \"#utility.yul\":1530:1600   */\n      swap8\n      pop\n        /* \"#utility.yul\":1623:1683   */\n      tag_83\n        /* \"#utility.yul\":1676:1682   */\n      dup4\n        /* \"#utility.yul\":1623:1683   */\n      tag_46\n      jump\t// in\n    tag_83:\n        /* \"#utility.yul\":1613:1683   */\n      swap3\n      pop\n        /* \"#utility.yul\":1469:1693   */\n      pop\n        /* \"#utility.yul\":1456:1457   */\n      0x01\n        /* \"#utility.yul\":1453:1454   */\n      dup2\n        /* \"#utility.yul\":1449:1458   */\n      add\n        /* \"#utility.yul\":1444:1458   */\n      swap1\n      pop\n        /* \"#utility.yul\":1409:1693   */\n      jump(tag_79)\n    tag_81:\n        /* \"#utility.yul\":1413:1427   */\n      pop\n        /* \"#utility.yul\":1709:1712   */\n      dup6\n        /* \"#utility.yul\":1702:1712   */\n      swap4\n      pop\n        /* \"#utility.yul\":1110:1718   */\n      pop\n      pop\n      pop\n        /* \"#utility.yul\":986:1718   */\n      swap3\n      swap2\n      pop\n      pop\n      jump\t// out\n        /* \"#utility.yul\":1724:2097   */\n    tag_12:\n        /* \"#utility.yul\":1867:1871   */\n      0x00\n        /* \"#utility.yul\":1905:1907   */\n      0x20\n        /* \"#utility.yul\":1894:1903   */\n      dup3\n        /* \"#utility.yul\":1890:1908   */\n      add\n        /* \"#utility.yul\":1882:1908   */\n      swap1\n      pop\n        /* \"#utility.yul\":1954:1963   */\n      dup2\n        /* \"#utility.yul\":1948:1952   */\n      dup2\n        /* \"#utility.yul\":1944:1964   */\n      sub\n        /* \"#utility.yul\":1940:1941   */\n      0x00\n        /* \"#utility.yul\":1929:1938   */\n      dup4\n        /* \"#utility.yul\":1925:1942   */\n      add\n        /* \"#utility.yul\":1918:1965   */\n      mstore\n        /* \"#utility.yul\":1982:2090   */\n      tag_85\n        /* \"#utility.yul\":2085:2089   */\n      dup2\n        /* \"#utility.yul\":2076:2082   */\n      dup5\n        /* \"#utility.yul\":1982:2090   */\n      tag_47\n      jump\t// in\n    tag_85:\n        /* \"#utility.yul\":1974:2090   */\n      swap1\n      pop\n        /* \"#utility.yul\":1724:2097   */\n      swap3\n      swap2\n      pop\n      pop\n      jump\t// out\n        /* \"#utility.yul\":2103:2221   */\n    tag_48:\n        /* \"#utility.yul\":2190:2214   */\n      tag_87\n        /* \"#utility.yul\":2208:2213   */\n      dup2\n        /* \"#utility.yul\":2190:2214   */\n      tag_43\n      jump\t// in\n    tag_87:\n        /* \"#utility.yul\":2185:2188   */\n      dup3\n        /* \"#utility.yul\":2178:2215   */\n      mstore\n        /* \"#utility.yul\":2103:2221   */\n      pop\n      pop\n      jump\t// out\n        /* \"#utility.yul\":2227:2317   */\n    tag_49:\n        /* \"#utility.yul\":2261:2268   */\n      0x00\n        /* \"#utility.yul\":2304:2309   */\n      dup2\n        /* \"#utility.yul\":2297:2310   */\n      iszero\n        /* \"#utility.yul\":2290:2311   */\n      iszero\n        /* \"#utility.yul\":2279:2311   */\n      swap1\n      pop\n        /* \"#utility.yul\":2227:2317   */\n      swap2\n      swap1\n      pop\n      jump\t// out\n        /* \"#utility.yul\":2323:2432   */\n    tag_50:\n        /* \"#utility.yul\":2404:2425   */\n      tag_90\n        /* \"#utility.yul\":2419:2424   */\n      dup2\n        /* \"#utility.yul\":2404:2425   */\n      tag_49\n      jump\t// in\n    tag_90:\n        /* \"#utility.yul\":2399:2402   */\n      dup3\n        /* \"#utility.yul\":2392:2426   */\n      mstore\n        /* \"#utility.yul\":2323:2432   */\n      pop\n      pop\n      jump\t// out\n        /* \"#utility.yul\":2438:3090   */\n    tag_16:\n        /* \"#utility.yul\":2637:2641   */\n      0x00\n        /* \"#utility.yul\":2675:2678   */\n      0xa0\n        /* \"#utility.yul\":2664:2673   */\n      dup3\n        /* \"#utility.yul\":2660:2679   */\n      add\n        /* \"#utility.yul\":2652:2679   */\n      swap1\n      pop\n        /* \"#utility.yul\":2689:2760   */\n      tag_92\n        /* \"#utility.yul\":2757:2758   */\n      0x00\n        /* \"#utility.yul\":2746:2755   */\n      dup4\n        /* \"#utility.yul\":2742:2759   */\n      add\n        /* \"#utility.yul\":2733:2739   */\n      dup9\n        /* \"#utility.yul\":2689:2760   */\n      tag_48\n      jump\t// in\n    tag_92:\n        /* \"#utility.yul\":2770:2836   */\n      tag_93\n        /* \"#utility.yul\":2832:2834   */\n      0x20\n        /* \"#utility.yul\":2821:2830   */\n      dup4\n        /* \"#utility.yul\":2817:2835   */\n      add\n        /* \"#utility.yul\":2808:2814   */\n      dup8\n        /* \"#utility.yul\":2770:2836   */\n      tag_50\n      jump\t// in\n    tag_93:\n        /* \"#utility.yul\":2846:2918   */\n      tag_94\n        /* \"#utility.yul\":2914:2916   */\n      0x40\n        /* \"#utility.yul\":2903:2912   */\n      dup4\n        /* \"#utility.yul\":2899:2917   */\n      add\n        /* \"#utility.yul\":2890:2896   */\n      dup7\n        /* \"#utility.yul\":2846:2918   */\n      tag_48\n      jump\t// in\n    tag_94:\n        /* \"#utility.yul\":2928:3000   */\n      tag_95\n        /* \"#utility.yul\":2996:2998   */\n      0x60\n        /* \"#utility.yul\":2985:2994   */\n      dup4\n        /* \"#utility.yul\":2981:2999   */\n      add\n        /* \"#utility.yul\":2972:2978   */\n      dup6\n        /* \"#utility.yul\":2928:3000   */\n      tag_48\n      jump\t// in\n    tag_95:\n        /* \"#utility.yul\":3010:3083   */\n      tag_96\n        /* \"#utility.yul\":3078:3081   */\n      0x80\n        /* \"#utility.yul\":3067:3076   */\n      dup4\n        /* \"#utility.yul\":3063:3082   */\n      add\n        /* \"#utility.yul\":3054:3060   */\n      dup5\n        /* \"#utility.yul\":3010:3083   */\n      tag_48\n      jump\t// in\n    tag_96:\n        /* \"#utility.yul\":2438:3090   */\n      swap7\n      swap6\n      pop\n      pop\n      pop\n      pop\n      pop\n      pop\n      jump\t// out\n        /* \"#utility.yul\":3096:3526   */\n    tag_20:\n        /* \"#utility.yul\":3239:3243   */\n      0x00\n        /* \"#utility.yul\":3277:3279   */\n      0x60\n        /* \"#utility.yul\":3266:3275   */\n      dup3\n        /* \"#utility.yul\":3262:3280   */\n      add\n        /* \"#utility.yul\":3254:3280   */\n      swap1\n      pop\n        /* \"#utility.yul\":3290:3361   */\n      tag_98\n        /* \"#utility.yul\":3358:3359   */\n      0x00\n        /* \"#utility.yul\":3347:3356   */\n      dup4\n        /* \"#utility.yul\":3343:3360   */\n      add\n        /* \"#utility.yul\":3334:3340   */\n      dup7\n        /* \"#utility.yul\":3290:3361   */\n      tag_48\n      jump\t// in\n    tag_98:\n        /* \"#utility.yul\":3371:3437   */\n      tag_99\n        /* \"#utility.yul\":3433:3435   */\n      0x20\n        /* \"#utility.yul\":3422:3431   */\n      dup4\n        /* \"#utility.yul\":3418:3436   */\n      add\n        /* \"#utility.yul\":3409:3415   */\n      dup6\n        /* \"#utility.yul\":3371:3437   */\n      tag_50\n      jump\t// in\n    tag_99:\n        /* \"#utility.yul\":3447:3519   */\n      tag_100\n        /* \"#utility.yul\":3515:3517   */\n      0x40\n        /* \"#utility.yul\":3504:3513   */\n      dup4\n        /* \"#utility.yul\":3500:3518   */\n      add\n        /* \"#utility.yul\":3491:3497   */\n      dup5\n        /* \"#utility.yul\":3447:3519   */\n      tag_48\n      jump\t// in\n    tag_100:\n        /* \"#utility.yul\":3096:3526   */\n      swap5\n      swap4\n      pop\n      pop\n      pop\n      pop\n      jump\t// out\n        /* \"#utility.yul\":3532:3607   */\n    tag_51:\n        /* \"#utility.yul\":3565:3571   */\n      0x00\n        /* \"#utility.yul\":3598:3600   */\n      0x40\n        /* \"#utility.yul\":3592:3601   */\n      mload\n        /* \"#utility.yul\":3582:3601   */\n      swap1\n      pop\n        /* \"#utility.yul\":3532:3607   */\n      swap1\n      jump\t// out\n        /* \"#utility.yul\":3613:3730   */\n    tag_52:\n        /* \"#utility.yul\":3722:3723   */\n      0x00\n        /* \"#utility.yul\":3719:3720   */\n      dup1\n        /* \"#utility.yul\":3712:3724   */\n      revert\n        /* \"#utility.yul\":3736:3853   */\n    tag_53:\n        /* \"#utility.yul\":3845:3846   */\n      0x00\n        /* \"#utility.yul\":3842:3843   */\n      dup1\n        /* \"#utility.yul\":3835:3847   */\n      revert\n        /* \"#utility.yul\":3859:3976   */\n    tag_54:\n        /* \"#utility.yul\":3968:3969   */\n      0x00\n        /* \"#utility.yul\":3965:3966   */\n      dup1\n        /* \"#utility.yul\":3958:3970   */\n      revert\n        /* \"#utility.yul\":3982:4084   */\n    tag_55:\n        /* \"#utility.yul\":4023:4029   */\n      0x00\n        /* \"#utility.yul\":4074:4076   */\n      0x1f\n        /* \"#utility.yul\":4070:4077   */\n      not\n        /* \"#utility.yul\":4065:4067   */\n      0x1f\n        /* \"#utility.yul\":4058:4063   */\n      dup4\n        /* \"#utility.yul\":4054:4068   */\n      add\n        /* \"#utility.yul\":4050:4078   */\n      and\n        /* \"#utility.yul\":4040:4078   */\n      swap1\n      pop\n        /* \"#utility.yul\":3982:4084   */\n      swap2\n      swap1\n      pop\n      jump\t// out\n        /* \"#utility.yul\":4090:4270   */\n    tag_56:\n        /* \"#utility.yul\":4138:4215   */\n      0x4e487b7100000000000000000000000000000000000000000000000000000000\n        /* \"#utility.yul\":4135:4136   */\n      0x00\n        /* \"#utility.yul\":4128:4216   */\n      mstore\n        /* \"#utility.yul\":4235:4239   */\n      0x41\n        /* \"#utility.yul\":4232:4233   */\n      0x04\n        /* \"#utility.yul\":4225:4240   */\n      mstore\n        /* \"#utility.yul\":4259:4263   */\n      0x24\n        /* \"#utility.yul\":4256:4257   */\n      0x00\n        /* \"#utility.yul\":4249:4264   */\n      revert\n        /* \"#utility.yul\":4276:4557   */\n    tag_57:\n        /* \"#utility.yul\":4359:4386   */\n      tag_108\n        /* \"#utility.yul\":4381:4385   */\n      dup3\n        /* \"#utility.yul\":4359:4386   */\n      tag_55\n      jump\t// in\n    tag_108:\n        /* \"#utility.yul\":4351:4357   */\n      dup2\n        /* \"#utility.yul\":4347:4387   */\n      add\n        /* \"#utility.yul\":4489:4495   */\n      dup2\n        /* \"#utility.yul\":4477:4487   */\n      dup2\n        /* \"#utility.yul\":4474:4496   */\n      lt\n        /* \"#utility.yul\":4453:4471   */\n      0xffffffffffffffff\n        /* \"#utility.yul\":4441:4451   */\n      dup3\n        /* \"#utility.yul\":4438:4472   */\n      gt\n        /* \"#utility.yul\":4435:4497   */\n      or\n        /* \"#utility.yul\":4432:4520   */\n      iszero\n      tag_109\n      jumpi\n        /* \"#utility.yul\":4500:4518   */\n      tag_110\n      tag_56\n      jump\t// in\n    tag_110:\n        /* \"#utility.yul\":4432:4520   */\n    tag_109:\n        /* \"#utility.yul\":4540:4550   */\n      dup1\n        /* \"#utility.yul\":4536:4538   */\n      0x40\n        /* \"#utility.yul\":4529:4551   */\n      mstore\n        /* \"#utility.yul\":4319:4557   */\n      pop\n        /* \"#utility.yul\":4276:4557   */\n      pop\n      pop\n      jump\t// out\n        /* \"#utility.yul\":4563:4692   */\n    tag_58:\n        /* \"#utility.yul\":4597:4603   */\n      0x00\n        /* \"#utility.yul\":4624:4644   */\n      tag_112\n      tag_51\n      jump\t// in\n    tag_112:\n        /* \"#utility.yul\":4614:4644   */\n      swap1\n      pop\n        /* \"#utility.yul\":4653:4686   */\n      tag_113\n        /* \"#utility.yul\":4681:4685   */\n      dup3\n        /* \"#utility.yul\":4673:4679   */\n      dup3\n        /* \"#utility.yul\":4653:4686   */\n      tag_57\n      jump\t// in\n    tag_113:\n        /* \"#utility.yul\":4563:4692   */\n      swap2\n      swap1\n      pop\n      jump\t// out\n        /* \"#utility.yul\":4698:5009   */\n    tag_59:\n        /* \"#utility.yul\":4775:4779   */\n      0x00\n        /* \"#utility.yul\":4865:4883   */\n      0xffffffffffffffff\n        /* \"#utility.yul\":4857:4863   */\n      dup3\n        /* \"#utility.yul\":4854:4884   */\n      gt\n        /* \"#utility.yul\":4851:4907   */\n      iszero\n      tag_115\n      jumpi\n        /* \"#utility.yul\":4887:4905   */\n      tag_116\n      tag_56\n      jump\t// in\n    tag_116:\n        /* \"#utility.yul\":4851:4907   */\n    tag_115:\n        /* \"#utility.yul\":4937:4941   */\n      0x20\n        /* \"#utility.yul\":4929:4935   */\n      dup3\n        /* \"#utility.yul\":4925:4942   */\n      mul\n        /* \"#utility.yul\":4917:4942   */\n      swap1\n      pop\n        /* \"#utility.yul\":4997:5001   */\n      0x20\n        /* \"#utility.yul\":4991:4995   */\n      dup2\n        /* \"#utility.yul\":4987:5002   */\n      add\n        /* \"#utility.yul\":4979:5002   */\n      swap1\n      pop\n        /* \"#utility.yul\":4698:5009   */\n      swap2\n      swap1\n      pop\n      jump\t// out\n        /* \"#utility.yul\":5015:5132   */\n    tag_60:\n        /* \"#utility.yul\":5124:5125   */\n      0x00\n        /* \"#utility.yul\":5121:5122   */\n      dup1\n        /* \"#utility.yul\":5114:5126   */\n      revert\n        /* \"#utility.yul\":5138:5260   */\n    tag_61:\n        /* \"#utility.yul\":5211:5235   */\n      tag_119\n        /* \"#utility.yul\":5229:5234   */\n      dup2\n        /* \"#utility.yul\":5211:5235   */\n      tag_43\n      jump\t// in\n    tag_119:\n        /* \"#utility.yul\":5204:5209   */\n      dup2\n        /* \"#utility.yul\":5201:5236   */\n      eq\n        /* \"#utility.yul\":5191:5254   */\n      tag_120\n      jumpi\n        /* \"#utility.yul\":5250:5251   */\n      0x00\n        /* \"#utility.yul\":5247:5248   */\n      dup1\n        /* \"#utility.yul\":5240:5252   */\n      revert\n        /* \"#utility.yul\":5191:5254   */\n    tag_120:\n        /* \"#utility.yul\":5138:5260   */\n      pop\n      jump\t// out\n        /* \"#utility.yul\":5266:5405   */\n    tag_62:\n        /* \"#utility.yul\":5312:5317   */\n      0x00\n        /* \"#utility.yul\":5350:5356   */\n      dup2\n        /* \"#utility.yul\":5337:5357   */\n      calldataload\n        /* \"#utility.yul\":5328:5357   */\n      swap1\n      pop\n        /* \"#utility.yul\":5366:5399   */\n      tag_122\n        /* \"#utility.yul\":5393:5398   */\n      dup2\n        /* \"#utility.yul\":5366:5399   */\n      tag_61\n      jump\t// in\n    tag_122:\n        /* \"#utility.yul\":5266:5405   */\n      swap3\n      swap2\n      pop\n      pop\n      jump\t// out\n        /* \"#utility.yul\":5428:6138   */\n    tag_63:\n        /* \"#utility.yul\":5524:5529   */\n      0x00\n        /* \"#utility.yul\":5549:5630   */\n      tag_124\n        /* \"#utility.yul\":5565:5629   */\n      tag_125\n        /* \"#utility.yul\":5622:5628   */\n      dup5\n        /* \"#utility.yul\":5565:5629   */\n      tag_59\n      jump\t// in\n    tag_125:\n        /* \"#utility.yul\":5549:5630   */\n      tag_58\n      jump\t// in\n    tag_124:\n        /* \"#utility.yul\":5540:5630   */\n      swap1\n      pop\n        /* \"#utility.yul\":5650:5655   */\n      dup1\n        /* \"#utility.yul\":5679:5685   */\n      dup4\n        /* \"#utility.yul\":5672:5677   */\n      dup3\n        /* \"#utility.yul\":5665:5686   */\n      mstore\n        /* \"#utility.yul\":5713:5717   */\n      0x20\n        /* \"#utility.yul\":5706:5711   */\n      dup3\n        /* \"#utility.yul\":5702:5718   */\n      add\n        /* \"#utility.yul\":5695:5718   */\n      swap1\n      pop\n        /* \"#utility.yul\":5766:5770   */\n      0x20\n        /* \"#utility.yul\":5758:5764   */\n      dup5\n        /* \"#utility.yul\":5754:5771   */\n      mul\n        /* \"#utility.yul\":5746:5752   */\n      dup4\n        /* \"#utility.yul\":5742:5772   */\n      add\n        /* \"#utility.yul\":5795:5798   */\n      dup6\n        /* \"#utility.yul\":5787:5793   */\n      dup2\n        /* \"#utility.yul\":5784:5799   */\n      gt\n        /* \"#utility.yul\":5781:5903   */\n      iszero\n      tag_126\n      jumpi\n        /* \"#utility.yul\":5814:5893   */\n      tag_127\n      tag_60\n      jump\t// in\n    tag_127:\n        /* \"#utility.yul\":5781:5903   */\n    tag_126:\n        /* \"#utility.yul\":5929:5935   */\n      dup4\n        /* \"#utility.yul\":5912:6132   */\n    tag_128:\n        /* \"#utility.yul\":5946:5952   */\n      dup2\n        /* \"#utility.yul\":5941:5944   */\n      dup2\n        /* \"#utility.yul\":5938:5953   */\n      lt\n        /* \"#utility.yul\":5912:6132   */\n      iszero\n      tag_130\n      jumpi\n        /* \"#utility.yul\":6021:6024   */\n      dup1\n        /* \"#utility.yul\":6050:6087   */\n      tag_131\n        /* \"#utility.yul\":6083:6086   */\n      dup9\n        /* \"#utility.yul\":6071:6081   */\n      dup3\n        /* \"#utility.yul\":6050:6087   */\n      tag_62\n      jump\t// in\n    tag_131:\n        /* \"#utility.yul\":6045:6048   */\n      dup5\n        /* \"#utility.yul\":6038:6088   */\n      mstore\n        /* \"#utility.yul\":6117:6121   */\n      0x20\n        /* \"#utility.yul\":6112:6115   */\n      dup5\n        /* \"#utility.yul\":6108:6122   */\n      add\n        /* \"#utility.yul\":6101:6122   */\n      swap4\n      pop\n        /* \"#utility.yul\":5988:6132   */\n      pop\n        /* \"#utility.yul\":5972:5976   */\n      0x20\n        /* \"#utility.yul\":5967:5970   */\n      dup2\n        /* \"#utility.yul\":5963:5977   */\n      add\n        /* \"#utility.yul\":5956:5977   */\n      swap1\n      pop\n        /* \"#utility.yul\":5912:6132   */\n      jump(tag_128)\n    tag_130:\n        /* \"#utility.yul\":5916:5937   */\n      pop\n        /* \"#utility.yul\":5530:6138   */\n      pop\n      pop\n        /* \"#utility.yul\":5428:6138   */\n      swap4\n      swap3\n      pop\n      pop\n      pop\n      jump\t// out\n        /* \"#utility.yul\":6161:6531   */\n    tag_64:\n        /* \"#utility.yul\":6232:6237   */\n      0x00\n        /* \"#utility.yul\":6281:6284   */\n      dup3\n        /* \"#utility.yul\":6274:6278   */\n      0x1f\n        /* \"#utility.yul\":6266:6272   */\n      dup4\n        /* \"#utility.yul\":6262:6279   */\n      add\n        /* \"#utility.yul\":6258:6285   */\n      slt\n        /* \"#utility.yul\":6248:6370   */\n      tag_133\n      jumpi\n        /* \"#utility.yul\":6289:6368   */\n      tag_134\n      tag_54\n      jump\t// in\n    tag_134:\n        /* \"#utility.yul\":6248:6370   */\n    tag_133:\n        /* \"#utility.yul\":6406:6412   */\n      dup2\n        /* \"#utility.yul\":6393:6413   */\n      calldataload\n        /* \"#utility.yul\":6431:6525   */\n      tag_135\n        /* \"#utility.yul\":6521:6524   */\n      dup5\n        /* \"#utility.yul\":6513:6519   */\n      dup3\n        /* \"#utility.yul\":6506:6510   */\n      0x20\n        /* \"#utility.yul\":6498:6504   */\n      dup7\n        /* \"#utility.yul\":6494:6511   */\n      add\n        /* \"#utility.yul\":6431:6525   */\n      tag_63\n      jump\t// in\n    tag_135:\n        /* \"#utility.yul\":6422:6525   */\n      swap2\n      pop\n        /* \"#utility.yul\":6238:6531   */\n      pop\n        /* \"#utility.yul\":6161:6531   */\n      swap3\n      swap2\n      pop\n      pop\n      jump\t// out\n        /* \"#utility.yul\":6537:7076   */\n    tag_29:\n        /* \"#utility.yul\":6621:6627   */\n      0x00\n        /* \"#utility.yul\":6670:6672   */\n      0x20\n        /* \"#utility.yul\":6658:6667   */\n      dup3\n        /* \"#utility.yul\":6649:6656   */\n      dup5\n        /* \"#utility.yul\":6645:6668   */\n      sub\n        /* \"#utility.yul\":6641:6673   */\n      slt\n        /* \"#utility.yul\":6638:6757   */\n      iszero\n      tag_137\n      jumpi\n        /* \"#utility.yul\":6676:6755   */\n      tag_138\n      tag_52\n      jump\t// in\n    tag_138:\n        /* \"#utility.yul\":6638:6757   */\n    tag_137:\n        /* \"#utility.yul\":6824:6825   */\n      0x00\n        /* \"#utility.yul\":6813:6822   */\n      dup3\n        /* \"#utility.yul\":6809:6826   */\n      add\n        /* \"#utility.yul\":6796:6827   */\n      calldataload\n        /* \"#utility.yul\":6854:6872   */\n      0xffffffffffffffff\n        /* \"#utility.yul\":6846:6852   */\n      dup2\n        /* \"#utility.yul\":6843:6873   */\n      gt\n        /* \"#utility.yul\":6840:6957   */\n      iszero\n      tag_139\n      jumpi\n        /* \"#utility.yul\":6876:6955   */\n      tag_140\n      tag_53\n      jump\t// in\n    tag_140:\n        /* \"#utility.yul\":6840:6957   */\n    tag_139:\n        /* \"#utility.yul\":6981:7059   */\n      tag_141\n        /* \"#utility.yul\":7051:7058   */\n      dup5\n        /* \"#utility.yul\":7042:7048   */\n      dup3\n        /* \"#utility.yul\":7031:7040   */\n      dup6\n        /* \"#utility.yul\":7027:7049   */\n      add\n        /* \"#utility.yul\":6981:7059   */\n      tag_64\n      jump\t// in\n    tag_141:\n        /* \"#utility.yul\":6971:7059   */\n      swap2\n      pop\n        /* \"#utility.yul\":6767:7069   */\n      pop\n        /* \"#utility.yul\":6537:7076   */\n      swap3\n      swap2\n      pop\n      pop\n      jump\t// out\n\n    auxdata: 0xa26469706673582212204f8c893f21e3eb66c81644f36455fb0b45e93a52bdedaabba4f86da81d8f0a0564736f6c634300080d0033\n}\n",
				"bytecode": {
					"linkReferences": {},
					"object": "608060405234801561001057600080fd5b506105b8806100206000396000f3fe608060405234801561001057600080fd5b50600436106100625760003560e01c80631990532b14610067578063343a6f931461008557806345f907a8146100a757806386887544146100c7578063adb4d990146100e7578063f4bb6e6b14610107575b600080fd5b61006f610123565b60405161007c91906102ca565b60405180910390f35b61008d61017b565b60405161009e959493929190610316565b60405180910390f35b6100af6101be565b6040516100be93929190610369565b60405180910390f35b6100cf6101d4565b6040516100de93929190610369565b60405180910390f35b6100ef6101e9565b6040516100fe93929190610369565b60405180910390f35b610121600480360381019061011c9190610539565b6101ff565b005b6060600080548060200260200160405190810160405280929190818152602001828054801561017157602002820191906000526020600020905b81548152602001906001019080831161015d575b5050505050905090565b60008060008060008060008061018f6101d4565b925092509250600080600460056006925050915084848484849950995099509950995050505050509091929394565b600080600060016000600a925092509250909192565b60008060006001806005925092509250909192565b6000806000600192506001915060149050909192565b50565b600081519050919050565b600082825260208201905092915050565b6000819050602082019050919050565b6000819050919050565b6102418161022e565b82525050565b60006102538383610238565b60208301905092915050565b6000602082019050919050565b600061027782610202565b610281818561020d565b935061028c8361021e565b8060005b838110156102bd5781516102a48882610247565b97506102af8361025f565b925050600181019050610290565b5085935050505092915050565b600060208201905081810360008301526102e4818461026c565b905092915050565b6102f58161022e565b82525050565b60008115159050919050565b610310816102fb565b82525050565b600060a08201905061032b60008301886102ec565b6103386020830187610307565b61034560408301866102ec565b61035260608301856102ec565b61035f60808301846102ec565b9695505050505050565b600060608201905061037e60008301866102ec565b61038b6020830185610307565b61039860408301846102ec565b949350505050565b6000604051905090565b600080fd5b600080fd5b600080fd5b6000601f19601f8301169050919050565b7f4e487b7100000000000000000000000000000000000000000000000000000000600052604160045260246000fd5b610402826103b9565b810181811067ffffffffffffffff82111715610421576104206103ca565b5b80604052505050565b60006104346103a0565b905061044082826103f9565b919050565b600067ffffffffffffffff8211156104605761045f6103ca565b5b602082029050602081019050919050565b600080fd5b61047f8161022e565b811461048a57600080fd5b50565b60008135905061049c81610476565b92915050565b60006104b56104b084610445565b61042a565b905080838252602082019050602084028301858111156104d8576104d7610471565b5b835b8181101561050157806104ed888261048d565b8452602084019350506020810190506104da565b5050509392505050565b600082601f8301126105205761051f6103b4565b5b81356105308482602086016104a2565b91505092915050565b60006020828403121561054f5761054e6103aa565b5b600082013567ffffffffffffffff81111561056d5761056c6103af565b5b6105798482850161050b565b9150509291505056fea26469706673582212204f8c893f21e3eb66c81644f36455fb0b45e93a52bdedaabba4f86da81d8f0a0564736f6c634300080d0033",
					"opcodes": "PUSH1 0x80 PUSH1 0x40 MSTORE CALLVALUE DUP1 ISZERO PUSH2 0x10 JUMPI PUSH1 0x0 DUP1 REVERT JUMPDEST POP PUSH2 0x5B8 DUP1 PUSH2 0x20 PUSH1 0x0 CODECOPY PUSH1 0x0 RETURN INVALID PUSH1 0x80 PUSH1 0x40 MSTORE CALLVALUE DUP1 ISZERO PUSH2 0x10 JUMPI PUSH1 0x0 DUP1 REVERT JUMPDEST POP PUSH1 0x4 CALLDATASIZE LT PUSH2 0x62 JUMPI PUSH1 0x0 CALLDATALOAD PUSH1 0xE0 SHR DUP1 PUSH4 0x1990532B EQ PUSH2 0x67 JUMPI DUP1 PUSH4 0x343A6F93 EQ PUSH2 0x85 JUMPI DUP1 PUSH4 0x45F907A8 EQ PUSH2 0xA7 JUMPI DUP1 PUSH4 0x86887544 EQ PUSH2 0xC7 JUMPI DUP1 PUSH4 0xADB4D990 EQ PUSH2 0xE7 JUMPI DUP1 PUSH4 0xF4BB6E6B EQ PUSH2 0x107 JUMPI JUMPDEST PUSH1 0x0 DUP1 REVERT JUMPDEST PUSH2 0x6F PUSH2 0x123 JUMP JUMPDEST PUSH1 0x40 MLOAD PUSH2 0x7C SWAP2 SWAP1 PUSH2 0x2CA JUMP JUMPDEST PUSH1 0x40 MLOAD DUP1 SWAP2 SUB SWAP1 RETURN JUMPDEST PUSH2 0x8D PUSH2 0x17B JUMP JUMPDEST PUSH1 0x40 MLOAD PUSH2 0x9E SWAP6 SWAP5 SWAP4 SWAP3 SWAP2 SWAP1 PUSH2 0x316 JUMP JUMPDEST PUSH1 0x40 MLOAD DUP1 SWAP2 SUB SWAP1 RETURN JUMPDEST PUSH2 0xAF PUSH2 0x1BE JUMP JUMPDEST PUSH1 0x40 MLOAD PUSH2 0xBE SWAP4 SWAP3 SWAP2 SWAP1 PUSH2 0x369 JUMP JUMPDEST PUSH1 0x40 MLOAD DUP1 SWAP2 SUB SWAP1 RETURN JUMPDEST PUSH2 0xCF PUSH2 0x1D4 JUMP JUMPDEST PUSH1 0x40 MLOAD PUSH2 0xDE SWAP4 SWAP3 SWAP2 SWAP1 PUSH2 0x369 JUMP JUMPDEST PUSH1 0x40 MLOAD DUP1 SWAP2 SUB SWAP1 RETURN JUMPDEST PUSH2 0xEF PUSH2 0x1E9 JUMP JUMPDEST PUSH1 0x40 MLOAD PUSH2 0xFE SWAP4 SWAP3 SWAP2 SWAP1 PUSH2 0x369 JUMP JUMPDEST PUSH1 0x40 MLOAD DUP1 SWAP2 SUB SWAP1 RETURN JUMPDEST PUSH2 0x121 PUSH1 0x4 DUP1 CALLDATASIZE SUB DUP2 ADD SWAP1 PUSH2 0x11C SWAP2 SWAP1 PUSH2 0x539 JUMP JUMPDEST PUSH2 0x1FF JUMP JUMPDEST STOP JUMPDEST PUSH1 0x60 PUSH1 0x0 DUP1 SLOAD DUP1 PUSH1 0x20 MUL PUSH1 0x20 ADD PUSH1 0x40 MLOAD SWAP1 DUP2 ADD PUSH1 0x40 MSTORE DUP1 SWAP3 SWAP2 SWAP1 DUP2 DUP2 MSTORE PUSH1 0x20 ADD DUP3 DUP1 SLOAD DUP1 ISZERO PUSH2 0x171 JUMPI PUSH1 0x20 MUL DUP3 ADD SWAP2 SWAP1 PUSH1 0x0 MSTORE PUSH1 0x20 PUSH1 0x0 KECCAK256 SWAP1 JUMPDEST DUP2 SLOAD DUP2 MSTORE PUSH1 0x20 ADD SWAP1 PUSH1 0x1 ADD SWAP1 DUP1 DUP4 GT PUSH2 0x15D JUMPI JUMPDEST POP POP POP POP POP SWAP1 POP SWAP1 JUMP JUMPDEST PUSH1 0x0 DUP1 PUSH1 0x0 DUP1 PUSH1 0x0 DUP1 PUSH1 0x0 DUP1 PUSH2 0x18F PUSH2 0x1D4 JUMP JUMPDEST SWAP3 POP SWAP3 POP SWAP3 POP PUSH1 0x0 DUP1 PUSH1 0x4 PUSH1 0x5 PUSH1 0x6 SWAP3 POP POP SWAP2 POP DUP5 DUP5 DUP5 DUP5 DUP5 SWAP10 POP SWAP10 POP SWAP10 POP SWAP10 POP SWAP10 POP POP POP POP POP POP SWAP1 SWAP2 SWAP3 SWAP4 SWAP5 JUMP JUMPDEST PUSH1 0x0 DUP1 PUSH1 0x0 PUSH1 0x1 PUSH1 0x0 PUSH1 0xA SWAP3 POP SWAP3 POP SWAP3 POP SWAP1 SWAP2 SWAP3 JUMP JUMPDEST PUSH1 0x0 DUP1 PUSH1 0x0 PUSH1 0x1 DUP1 PUSH1 0x5 SWAP3 POP SWAP3 POP SWAP3 POP SWAP1 SWAP2 SWAP3 JUMP JUMPDEST PUSH1 0x0 DUP1 PUSH1 0x0 PUSH1 0x1 SWAP3 POP PUSH1 0x1 SWAP2 POP PUSH1 0x14 SWAP1 POP SWAP1 SWAP2 SWAP3 JUMP JUMPDEST POP JUMP JUMPDEST PUSH1 0x0 DUP2 MLOAD SWAP1 POP SWAP2 SWAP1 POP JUMP JUMPDEST PUSH1 0x0 DUP3 DUP3 MSTORE PUSH1 0x20 DUP3 ADD SWAP1 POP SWAP3 SWAP2 POP POP JUMP JUMPDEST PUSH1 0x0 DUP2 SWAP1 POP PUSH1 0x20 DUP3 ADD SWAP1 POP SWAP2 SWAP1 POP JUMP JUMPDEST PUSH1 0x0 DUP2 SWAP1 POP SWAP2 SWAP1 POP JUMP JUMPDEST PUSH2 0x241 DUP2 PUSH2 0x22E JUMP JUMPDEST DUP3 MSTORE POP POP JUMP JUMPDEST PUSH1 0x0 PUSH2 0x253 DUP4 DUP4 PUSH2 0x238 JUMP JUMPDEST PUSH1 0x20 DUP4 ADD SWAP1 POP SWAP3 SWAP2 POP POP JUMP JUMPDEST PUSH1 0x0 PUSH1 0x20 DUP3 ADD SWAP1 POP SWAP2 SWAP1 POP JUMP JUMPDEST PUSH1 0x0 PUSH2 0x277 DUP3 PUSH2 0x202 JUMP JUMPDEST PUSH2 0x281 DUP2 DUP6 PUSH2 0x20D JUMP JUMPDEST SWAP4 POP PUSH2 0x28C DUP4 PUSH2 0x21E JUMP JUMPDEST DUP1 PUSH1 0x0 JUMPDEST DUP4 DUP2 LT ISZERO PUSH2 0x2BD JUMPI DUP2 MLOAD PUSH2 0x2A4 DUP9 DUP3 PUSH2 0x247 JUMP JUMPDEST SWAP8 POP PUSH2 0x2AF DUP4 PUSH2 0x25F JUMP JUMPDEST SWAP3 POP POP PUSH1 0x1 DUP2 ADD SWAP1 POP PUSH2 0x290 JUMP JUMPDEST POP DUP6 SWAP4 POP POP POP POP SWAP3 SWAP2 POP POP JUMP JUMPDEST PUSH1 0x0 PUSH1 0x20 DUP3 ADD SWAP1 POP DUP2 DUP2 SUB PUSH1 0x0 DUP4 ADD MSTORE PUSH2 0x2E4 DUP2 DUP5 PUSH2 0x26C JUMP JUMPDEST SWAP1 POP SWAP3 SWAP2 POP POP JUMP JUMPDEST PUSH2 0x2F5 DUP2 PUSH2 0x22E JUMP JUMPDEST DUP3 MSTORE POP POP JUMP JUMPDEST PUSH1 0x0 DUP2 ISZERO ISZERO SWAP1 POP SWAP2 SWAP1 POP JUMP JUMPDEST PUSH2 0x310 DUP2 PUSH2 0x2FB JUMP JUMPDEST DUP3 MSTORE POP POP JUMP JUMPDEST PUSH1 0x0 PUSH1 0xA0 DUP3 ADD SWAP1 POP PUSH2 0x32B PUSH1 0x0 DUP4 ADD DUP9 PUSH2 0x2EC JUMP JUMPDEST PUSH2 0x338 PUSH1 0x20 DUP4 ADD DUP8 PUSH2 0x307 JUMP JUMPDEST PUSH2 0x345 PUSH1 0x40 DUP4 ADD DUP7 PUSH2 0x2EC JUMP JUMPDEST PUSH2 0x352 PUSH1 0x60 DUP4 ADD DUP6 PUSH2 0x2EC JUMP JUMPDEST PUSH2 0x35F PUSH1 0x80 DUP4 ADD DUP5 PUSH2 0x2EC JUMP JUMPDEST SWAP7 SWAP6 POP POP POP POP POP POP JUMP JUMPDEST PUSH1 0x0 PUSH1 0x60 DUP3 ADD SWAP1 POP PUSH2 0x37E PUSH1 0x0 DUP4 ADD DUP7 PUSH2 0x2EC JUMP JUMPDEST PUSH2 0x38B PUSH1 0x20 DUP4 ADD DUP6 PUSH2 0x307 JUMP JUMPDEST PUSH2 0x398 PUSH1 0x40 DUP4 ADD DUP5 PUSH2 0x2EC JUMP JUMPDEST SWAP5 SWAP4 POP POP POP POP JUMP JUMPDEST PUSH1 0x0 PUSH1 0x40 MLOAD SWAP1 POP SWAP1 JUMP JUMPDEST PUSH1 0x0 DUP1 REVERT JUMPDEST PUSH1 0x0 DUP1 REVERT JUMPDEST PUSH1 0x0 DUP1 REVERT JUMPDEST PUSH1 0x0 PUSH1 0x1F NOT PUSH1 0x1F DUP4 ADD AND SWAP1 POP SWAP2 SWAP1 POP JUMP JUMPDEST PUSH32 0x4E487B7100000000000000000000000000000000000000000000000000000000 PUSH1 0x0 MSTORE PUSH1 0x41 PUSH1 0x4 MSTORE PUSH1 0x24 PUSH1 0x0 REVERT JUMPDEST PUSH2 0x402 DUP3 PUSH2 0x3B9 JUMP JUMPDEST DUP2 ADD DUP2 DUP2 LT PUSH8 0xFFFFFFFFFFFFFFFF DUP3 GT OR ISZERO PUSH2 0x421 JUMPI PUSH2 0x420 PUSH2 0x3CA JUMP JUMPDEST JUMPDEST DUP1 PUSH1 0x40 MSTORE POP POP POP JUMP JUMPDEST PUSH1 0x0 PUSH2 0x434 PUSH2 0x3A0 JUMP JUMPDEST SWAP1 POP PUSH2 0x440 DUP3 DUP3 PUSH2 0x3F9 JUMP JUMPDEST SWAP2 SWAP1 POP JUMP JUMPDEST PUSH1 0x0 PUSH8 0xFFFFFFFFFFFFFFFF DUP3 GT ISZERO PUSH2 0x460 JUMPI PUSH2 0x45F PUSH2 0x3CA JUMP JUMPDEST JUMPDEST PUSH1 0x20 DUP3 MUL SWAP1 POP PUSH1 0x20 DUP2 ADD SWAP1 POP SWAP2 SWAP1 POP JUMP JUMPDEST PUSH1 0x0 DUP1 REVERT JUMPDEST PUSH2 0x47F DUP2 PUSH2 0x22E JUMP JUMPDEST DUP2 EQ PUSH2 0x48A JUMPI PUSH1 0x0 DUP1 REVERT JUMPDEST POP JUMP JUMPDEST PUSH1 0x0 DUP2 CALLDATALOAD SWAP1 POP PUSH2 0x49C DUP2 PUSH2 0x476 JUMP JUMPDEST SWAP3 SWAP2 POP POP JUMP JUMPDEST PUSH1 0x0 PUSH2 0x4B5 PUSH2 0x4B0 DUP5 PUSH2 0x445 JUMP JUMPDEST PUSH2 0x42A JUMP JUMPDEST SWAP1 POP DUP1 DUP4 DUP3 MSTORE PUSH1 0x20 DUP3 ADD SWAP1 POP PUSH1 0x20 DUP5 MUL DUP4 ADD DUP6 DUP2 GT ISZERO PUSH2 0x4D8 JUMPI PUSH2 0x4D7 PUSH2 0x471 JUMP JUMPDEST JUMPDEST DUP4 JUMPDEST DUP2 DUP2 LT ISZERO PUSH2 0x501 JUMPI DUP1 PUSH2 0x4ED DUP9 DUP3 PUSH2 0x48D JUMP JUMPDEST DUP5 MSTORE PUSH1 0x20 DUP5 ADD SWAP4 POP POP PUSH1 0x20 DUP2 ADD SWAP1 POP PUSH2 0x4DA JUMP JUMPDEST POP POP POP SWAP4 SWAP3 POP POP POP JUMP JUMPDEST PUSH1 0x0 DUP3 PUSH1 0x1F DUP4 ADD SLT PUSH2 0x520 JUMPI PUSH2 0x51F PUSH2 0x3B4 JUMP JUMPDEST JUMPDEST DUP2 CALLDATALOAD PUSH2 0x530 DUP5 DUP3 PUSH1 0x20 DUP7 ADD PUSH2 0x4A2 JUMP JUMPDEST SWAP2 POP POP SWAP3 SWAP2 POP POP JUMP JUMPDEST PUSH1 0x0 PUSH1 0x20 DUP3 DUP5 SUB SLT ISZERO PUSH2 0x54F JUMPI PUSH2 0x54E PUSH2 0x3AA JUMP JUMPDEST JUMPDEST PUSH1 0x0 DUP3 ADD CALLDATALOAD PUSH8 0xFFFFFFFFFFFFFFFF DUP2 GT ISZERO PUSH2 0x56D JUMPI PUSH2 0x56C PUSH2 0x3AF JUMP JUMPDEST JUMPDEST PUSH2 0x579 DUP5 DUP3 DUP6 ADD PUSH2 0x50B JUMP JUMPDEST SWAP2 POP POP SWAP3 SWAP2 POP POP JUMP INVALID LOG2 PUSH5 0x6970667358 0x22 SLT KECCAK256 0x4F DUP13 DUP10 EXTCODEHASH 0x21 0xE3 0xEB PUSH7 0xC81644F36455FB SIGNEXTEND GASLIMIT 0xE9 GASPRICE MSTORE 0xBD 0xED 0xAA 0xBB LOG4 0xF8 PUSH14 0xA81D8F0A0564736F6C634300080D STOP CALLER "
				},
				"gasEstimates": {
					"creation": {
						"codeDepositCost": "292800",
						"executionCost": "331",
						"totalCost": "293131"
					},
					"external": {
						"arrayInput(uint256[])": "infinite",
						"arrayOutput()": "infinite",
						"assigned()": "infinite",
						"destructuringAssignment()": "infinite",
						"named()": "infinite",
						"returnMany()": "infinite"
					}
				},
				"methodIdentifiers": {
					"arrayInput(uint256[])": "f4bb6e6b",
					"arrayOutput()": "1990532b",
					"assigned()": "adb4d990",
					"destructuringAssignment()": "343a6f93",
					"named()": "45f907a8",
					"returnMany()": "86887544"
				}
			},
			"storageLayout": {
				"storage": [
					{
						"astId": 4,
						"contract": "contract/function.sol:Functions",
						"label": "arr",
						"offset": 0,
						"slot": "0",
						"type": "t_array(t_uint256)dyn_storage"
					}
				],
				"types": {
					"t_array(t_uint256)dyn_storage": {
						"base": "t_uint256",
						"encoding": "dynamic_array",
						"label": "uint256[]",
						"numberOfBytes": "32"
					},
					"t_uint256": {
						"encoding": "inplace",
						"label": "uint256",
						"numberOfBytes": "32"
					}
				}
			},
			"userdoc": {
				"kind": "user",
				"methods": {},
				"version": 1
			}
		}
	}
}