{
	"contract/localVariables.sol": {
		"LocalVariables": {
			"abi": [
				{
					"inputs": [],
					"name": "local",
					"outputs": [
						{
							"internalType": "address",
							"name": "",
							"type": "address"
						},
						{
							"internalType": "uint256",
							"name": "",
							"type": "uint256"
						},
						{
							"internalType": "uint256",
							"name": "",
							"type": "uint256"
						}
					],
					"stateMutability": "nonpayable",
					"type": "function"
				},
				{
					"inputs": [],
					"name": "myNumber",
					"outputs": [
						{
							"internalType": "uint256",
							"name": "",
							"type": "uint256"
						}
					],
					"stateMutability": "view",
					"type": "function"
				}
			],
			"devdoc": {
				"kind": "dev",
				"methods": {},
				"version": 1
			},
			"evm": {
				"assembly": "    /* \"contract/localVariables.sol\":58:574  contract LocalVariables {... */\n  mstore(0x40, 0x80)\n  callvalue\n  dup1\n  iszero\n  tag_1\n  jumpi\n  0x00\n  dup1\n  revert\ntag_1:\n  pop\n  dataSize(sub_0)\n  dup1\n  dataOffset(sub_0)\n  0x00\n  codecopy\n  0x00\n  return\nstop\n\nsub_0: assembly {\n        /* \"contract/localVariables.sol\":58:574  contract LocalVariables {... */\n      mstore(0x40, 0x80)\n      callvalue\n      dup1\n      iszero\n      tag_1\n      jumpi\n      0x00\n      dup1\n      revert\n    tag_1:\n      pop\n      jumpi(tag_2, lt(calldatasize, 0x04))\n      shr(0xe0, calldataload(0x00))\n      dup1\n      0x0f166ad4\n      eq\n      tag_3\n      jumpi\n      dup1\n      0x23fd0e40\n      eq\n      tag_4\n      jumpi\n    tag_2:\n      0x00\n      dup1\n      revert\n        /* \"contract/localVariables.sol\":154:572  function local()... */\n    tag_3:\n      tag_5\n      tag_6\n      jump\t// in\n    tag_5:\n      mload(0x40)\n      tag_7\n      swap4\n      swap3\n      swap2\n      swap1\n      tag_8\n      jump\t// in\n    tag_7:\n      mload(0x40)\n      dup1\n      swap2\n      sub\n      swap1\n      return\n        /* \"contract/localVariables.sol\":88:111  uint256 public myNumber */\n    tag_4:\n      tag_9\n      tag_10\n      jump\t// in\n    tag_9:\n      mload(0x40)\n      tag_11\n      swap2\n      swap1\n      tag_12\n      jump\t// in\n    tag_11:\n      mload(0x40)\n      dup1\n      swap2\n      sub\n      swap1\n      return\n        /* \"contract/localVariables.sol\":154:572  function local()... */\n    tag_6:\n        /* \"contract/localVariables.sol\":216:223  address */\n      0x00\n        /* \"contract/localVariables.sol\":237:244  uint256 */\n      dup1\n        /* \"contract/localVariables.sol\":258:265  uint256 */\n      0x00\n        /* \"contract/localVariables.sol\":430:439  uint256 i */\n      dup1\n        /* \"contract/localVariables.sol\":442:445  345 */\n      0x0159\n        /* \"contract/localVariables.sol\":430:445  uint256 i = 345 */\n      swap1\n      pop\n        /* \"contract/localVariables.sol\":466:467  i */\n      dup1\n        /* \"contract/localVariables.sol\":455:463  myNumber */\n      0x00\n        /* \"contract/localVariables.sol\":455:467  myNumber = i */\n      dup2\n      swap1\n      sstore\n      pop\n        /* \"contract/localVariables.sol\":482:484  90 */\n      0x5a\n        /* \"contract/localVariables.sol\":477:484  i += 90 */\n      dup2\n      tag_14\n      swap2\n      swap1\n      tag_15\n      jump\t// in\n    tag_14:\n      swap1\n      pop\n        /* \"contract/localVariables.sol\":494:511  address myAddress */\n      0x00\n        /* \"contract/localVariables.sol\":522:523  1 */\n      0x01\n        /* \"contract/localVariables.sol\":494:524  address myAddress = address(1) */\n      swap1\n      pop\n        /* \"contract/localVariables.sol\":542:551  myAddress */\n      dup1\n        /* \"contract/localVariables.sol\":553:561  myNumber */\n      sload(0x00)\n        /* \"contract/localVariables.sol\":563:564  i */\n      dup4\n        /* \"contract/localVariables.sol\":534:565  return (myAddress, myNumber, i) */\n      swap5\n      pop\n      swap5\n      pop\n      swap5\n      pop\n      pop\n      pop\n        /* \"contract/localVariables.sol\":154:572  function local()... */\n      swap1\n      swap2\n      swap3\n      jump\t// out\n        /* \"contract/localVariables.sol\":88:111  uint256 public myNumber */\n    tag_10:\n      sload(0x00)\n      dup2\n      jump\t// out\n        /* \"#utility.yul\":7:133   */\n    tag_16:\n        /* \"#utility.yul\":44:51   */\n      0x00\n        /* \"#utility.yul\":84:126   */\n      0xffffffffffffffffffffffffffffffffffffffff\n        /* \"#utility.yul\":77:82   */\n      dup3\n        /* \"#utility.yul\":73:127   */\n      and\n        /* \"#utility.yul\":62:127   */\n      swap1\n      pop\n        /* \"#utility.yul\":7:133   */\n      swap2\n      swap1\n      pop\n      jump\t// out\n        /* \"#utility.yul\":139:235   */\n    tag_17:\n        /* \"#utility.yul\":176:183   */\n      0x00\n        /* \"#utility.yul\":205:229   */\n      tag_25\n        /* \"#utility.yul\":223:228   */\n      dup3\n        /* \"#utility.yul\":205:229   */\n      tag_16\n      jump\t// in\n    tag_25:\n        /* \"#utility.yul\":194:229   */\n      swap1\n      pop\n        /* \"#utility.yul\":139:235   */\n      swap2\n      swap1\n      pop\n      jump\t// out\n        /* \"#utility.yul\":241:359   */\n    tag_18:\n        /* \"#utility.yul\":328:352   */\n      tag_27\n        /* \"#utility.yul\":346:351   */\n      dup2\n        /* \"#utility.yul\":328:352   */\n      tag_17\n      jump\t// in\n    tag_27:\n        /* \"#utility.yul\":323:326   */\n      dup3\n        /* \"#utility.yul\":316:353   */\n      mstore\n        /* \"#utility.yul\":241:359   */\n      pop\n      pop\n      jump\t// out\n        /* \"#utility.yul\":365:442   */\n    tag_19:\n        /* \"#utility.yul\":402:409   */\n      0x00\n        /* \"#utility.yul\":431:436   */\n      dup2\n        /* \"#utility.yul\":420:436   */\n      swap1\n      pop\n        /* \"#utility.yul\":365:442   */\n      swap2\n      swap1\n      pop\n      jump\t// out\n        /* \"#utility.yul\":448:566   */\n    tag_20:\n        /* \"#utility.yul\":535:559   */\n      tag_30\n        /* \"#utility.yul\":553:558   */\n      dup2\n        /* \"#utility.yul\":535:559   */\n      tag_19\n      jump\t// in\n    tag_30:\n        /* \"#utility.yul\":530:533   */\n      dup3\n        /* \"#utility.yul\":523:560   */\n      mstore\n        /* \"#utility.yul\":448:566   */\n      pop\n      pop\n      jump\t// out\n        /* \"#utility.yul\":572:1014   */\n    tag_8:\n        /* \"#utility.yul\":721:725   */\n      0x00\n        /* \"#utility.yul\":759:761   */\n      0x60\n        /* \"#utility.yul\":748:757   */\n      dup3\n        /* \"#utility.yul\":744:762   */\n      add\n        /* \"#utility.yul\":736:762   */\n      swap1\n      pop\n        /* \"#utility.yul\":772:843   */\n      tag_32\n        /* \"#utility.yul\":840:841   */\n      0x00\n        /* \"#utility.yul\":829:838   */\n      dup4\n        /* \"#utility.yul\":825:842   */\n      add\n        /* \"#utility.yul\":816:822   */\n      dup7\n        /* \"#utility.yul\":772:843   */\n      tag_18\n      jump\t// in\n    tag_32:\n        /* \"#utility.yul\":853:925   */\n      tag_33\n        /* \"#utility.yul\":921:923   */\n      0x20\n        /* \"#utility.yul\":910:919   */\n      dup4\n        /* \"#utility.yul\":906:924   */\n      add\n        /* \"#utility.yul\":897:903   */\n      dup6\n        /* \"#utility.yul\":853:925   */\n      tag_20\n      jump\t// in\n    tag_33:\n        /* \"#utility.yul\":935:1007   */\n      tag_34\n        /* \"#utility.yul\":1003:1005   */\n      0x40\n        /* \"#utility.yul\":992:1001   */\n      dup4\n        /* \"#utility.yul\":988:1006   */\n      add\n        /* \"#utility.yul\":979:985   */\n      dup5\n        /* \"#utility.yul\":935:1007   */\n      tag_20\n      jump\t// in\n    tag_34:\n        /* \"#utility.yul\":572:1014   */\n      swap5\n      swap4\n      pop\n      pop\n      pop\n      pop\n      jump\t// out\n        /* \"#utility.yul\":1020:1242   */\n    tag_12:\n        /* \"#utility.yul\":1113:1117   */\n      0x00\n        /* \"#utility.yul\":1151:1153   */\n      0x20\n        /* \"#utility.yul\":1140:1149   */\n      dup3\n        /* \"#utility.yul\":1136:1154   */\n      add\n        /* \"#utility.yul\":1128:1154   */\n      swap1\n      pop\n        /* \"#utility.yul\":1164:1235   */\n      tag_36\n        /* \"#utility.yul\":1232:1233   */\n      0x00\n        /* \"#utility.yul\":1221:1230   */\n      dup4\n        /* \"#utility.yul\":1217:1234   */\n      add\n        /* \"#utility.yul\":1208:1214   */\n      dup5\n        /* \"#utility.yul\":1164:1235   */\n      tag_20\n      jump\t// in\n    tag_36:\n        /* \"#utility.yul\":1020:1242   */\n      swap3\n      swap2\n      pop\n      pop\n      jump\t// out\n        /* \"#utility.yul\":1248:1428   */\n    tag_21:\n        /* \"#utility.yul\":1296:1373   */\n      0x4e487b7100000000000000000000000000000000000000000000000000000000\n        /* \"#utility.yul\":1293:1294   */\n      0x00\n        /* \"#utility.yul\":1286:1374   */\n      mstore\n        /* \"#utility.yul\":1393:1397   */\n      0x11\n        /* \"#utility.yul\":1390:1391   */\n      0x04\n        /* \"#utility.yul\":1383:1398   */\n      mstore\n        /* \"#utility.yul\":1417:1421   */\n      0x24\n        /* \"#utility.yul\":1414:1415   */\n      0x00\n        /* \"#utility.yul\":1407:1422   */\n      revert\n        /* \"#utility.yul\":1434:1739   */\n    tag_15:\n        /* \"#utility.yul\":1474:1477   */\n      0x00\n        /* \"#utility.yul\":1493:1513   */\n      tag_39\n        /* \"#utility.yul\":1511:1512   */\n      dup3\n        /* \"#utility.yul\":1493:1513   */\n      tag_19\n      jump\t// in\n    tag_39:\n        /* \"#utility.yul\":1488:1513   */\n      swap2\n      pop\n        /* \"#utility.yul\":1527:1547   */\n      tag_40\n        /* \"#utility.yul\":1545:1546   */\n      dup4\n        /* \"#utility.yul\":1527:1547   */\n      tag_19\n      jump\t// in\n    tag_40:\n        /* \"#utility.yul\":1522:1547   */\n      swap3\n      pop\n        /* \"#utility.yul\":1681:1682   */\n      dup3\n        /* \"#utility.yul\":1613:1679   */\n      0xffffffffffffffffffffffffffffffffffffffffffffffffffffffffffffffff\n        /* \"#utility.yul\":1609:1683   */\n      sub\n        /* \"#utility.yul\":1606:1607   */\n      dup3\n        /* \"#utility.yul\":1603:1684   */\n      gt\n        /* \"#utility.yul\":1600:1707   */\n      iszero\n      tag_41\n      jumpi\n        /* \"#utility.yul\":1687:1705   */\n      tag_42\n      tag_21\n      jump\t// in\n    tag_42:\n        /* \"#utility.yul\":1600:1707   */\n    tag_41:\n        /* \"#utility.yul\":1731:1732   */\n      dup3\n        /* \"#utility.yul\":1728:1729   */\n      dup3\n        /* \"#utility.yul\":1724:1733   */\n      add\n        /* \"#utility.yul\":1717:1733   */\n      swap1\n      pop\n        /* \"#utility.yul\":1434:1739   */\n      swap3\n      swap2\n      pop\n      pop\n      jump\t// out\n\n    auxdata: 0xa26469706673582212209e060f720d1e770ae800598abe261a60cba3a816319e179cecf7482cf61f871764736f6c634300080d0033\n}\n",
				"bytecode": {
					"linkReferences": {},
					"object": "608060405234801561001057600080fd5b5061021f806100206000396000f3fe608060405234801561001057600080fd5b50600436106100365760003560e01c80630f166ad41461003b57806323fd0e401461005b575b600080fd5b610043610079565b60405161005293929190610112565b60405180910390f35b6100636100b2565b6040516100709190610149565b60405180910390f35b600080600080610159905080600081905550605a816100989190610193565b905060006001905080600054839450945094505050909192565b60005481565b600073ffffffffffffffffffffffffffffffffffffffff82169050919050565b60006100e3826100b8565b9050919050565b6100f3816100d8565b82525050565b6000819050919050565b61010c816100f9565b82525050565b600060608201905061012760008301866100ea565b6101346020830185610103565b6101416040830184610103565b949350505050565b600060208201905061015e6000830184610103565b92915050565b7f4e487b7100000000000000000000000000000000000000000000000000000000600052601160045260246000fd5b600061019e826100f9565b91506101a9836100f9565b9250827fffffffffffffffffffffffffffffffffffffffffffffffffffffffffffffffff038211156101de576101dd610164565b5b82820190509291505056fea26469706673582212209e060f720d1e770ae800598abe261a60cba3a816319e179cecf7482cf61f871764736f6c634300080d0033",
					"opcodes": "PUSH1 0x80 PUSH1 0x40 MSTORE CALLVALUE DUP1 ISZERO PUSH2 0x10 JUMPI PUSH1 0x0 DUP1 REVERT JUMPDEST POP PUSH2 0x21F DUP1 PUSH2 0x20 PUSH1 0x0 CODECOPY PUSH1 0x0 RETURN INVALID PUSH1 0x80 PUSH1 0x40 MSTORE CALLVALUE DUP1 ISZERO PUSH2 0x10 JUMPI PUSH1 0x0 DUP1 REVERT JUMPDEST POP PUSH1 0x4 CALLDATASIZE LT PUSH2 0x36 JUMPI PUSH1 0x0 CALLDATALOAD PUSH1 0xE0 SHR DUP1 PUSH4 0xF166AD4 EQ PUSH2 0x3B JUMPI DUP1 PUSH4 0x23FD0E40 EQ PUSH2 0x5B JUMPI JUMPDEST PUSH1 0x0 DUP1 REVERT JUMPDEST PUSH2 0x43 PUSH2 0x79 JUMP JUMPDEST PUSH1 0x40 MLOAD PUSH2 0x52 SWAP4 SWAP3 SWAP2 SWAP1 PUSH2 0x112 JUMP JUMPDEST PUSH1 0x40 MLOAD DUP1 SWAP2 SUB SWAP1 RETURN JUMPDEST PUSH2 0x63 PUSH2 0xB2 JUMP JUMPDEST PUSH1 0x40 MLOAD PUSH2 0x70 SWAP2 SWAP1 PUSH2 0x149 JUMP JUMPDEST PUSH1 0x40 MLOAD DUP1 SWAP2 SUB SWAP1 RETURN JUMPDEST PUSH1 0x0 DUP1 PUSH1 0x0 DUP1 PUSH2 0x159 SWAP1 POP DUP1 PUSH1 0x0 DUP2 SWAP1 SSTORE POP PUSH1 0x5A DUP2 PUSH2 0x98 SWAP2 SWAP1 PUSH2 0x193 JUMP JUMPDEST SWAP1 POP PUSH1 0x0 PUSH1 0x1 SWAP1 POP DUP1 PUSH1 0x0 SLOAD DUP4 SWAP5 POP SWAP5 POP SWAP5 POP POP POP SWAP1 SWAP2 SWAP3 JUMP JUMPDEST PUSH1 0x0 SLOAD DUP2 JUMP JUMPDEST PUSH1 0x0 PUSH20 0xFFFFFFFFFFFFFFFFFFFFFFFFFFFFFFFFFFFFFFFF DUP3 AND SWAP1 POP SWAP2 SWAP1 POP JUMP JUMPDEST PUSH1 0x0 PUSH2 0xE3 DUP3 PUSH2 0xB8 JUMP JUMPDEST SWAP1 POP SWAP2 SWAP1 POP JUMP JUMPDEST PUSH2 0xF3 DUP2 PUSH2 0xD8 JUMP JUMPDEST DUP3 MSTORE POP POP JUMP JUMPDEST PUSH1 0x0 DUP2 SWAP1 POP SWAP2 SWAP1 POP JUMP JUMPDEST PUSH2 0x10C DUP2 PUSH2 0xF9 JUMP JUMPDEST DUP3 MSTORE POP POP JUMP JUMPDEST PUSH1 0x0 PUSH1 0x60 DUP3 ADD SWAP1 POP PUSH2 0x127 PUSH1 0x0 DUP4 ADD DUP7 PUSH2 0xEA JUMP JUMPDEST PUSH2 0x134 PUSH1 0x20 DUP4 ADD DUP6 PUSH2 0x103 JUMP JUMPDEST PUSH2 0x141 PUSH1 0x40 DUP4 ADD DUP5 PUSH2 0x103 JUMP JUMPDEST SWAP5 SWAP4 POP POP POP POP JUMP JUMPDEST PUSH1 0x0 PUSH1 0x20 DUP3 ADD SWAP1 POP PUSH2 0x15E PUSH1 0x0 DUP4 ADD DUP5 PUSH2 0x103 JUMP JUMPDEST SWAP3 SWAP2 POP POP JUMP JUMPDEST PUSH32 0x4E487B7100000000000000000000000000000000000000000000000000000000 PUSH1 0x0 MSTORE PUSH1 0x11 PUSH1 0x4 MSTORE PUSH1 0x24 PUSH1 0x0 REVERT JUMPDEST PUSH1 0x0 PUSH2 0x19E DUP3 PUSH2 0xF9 JUMP JUMPDEST SWAP2 POP PUSH2 0x1A9 DUP4 PUSH2 0xF9 JUMP JUMPDEST SWAP3 POP DUP3 PUSH32 0xFFFFFFFFFFFFFFFFFFFFFFFFFFFFFFFFFFFFFFFFFFFFFFFFFFFFFFFFFFFFFFFF SUB DUP3 GT ISZERO PUSH2 0x1DE JUMPI PUSH2 0x1DD PUSH2 0x164 JUMP JUMPDEST JUMPDEST DUP3 DUP3 ADD SWAP1 POP SWAP3 SWAP2 POP POP JUMP INVALID LOG2 PUSH5 0x6970667358 0x22 SLT KECCAK256 SWAP15 MOD 0xF PUSH19 0xD1E770AE800598ABE261A60CBA3A816319E17 SWAP13 0xEC 0xF7 BASEFEE 0x2C 0xF6 0x1F DUP8 OR PUSH5 0x736F6C6343 STOP ADDMOD 0xD STOP CALLER "
				},
				"gasEstimates": {
					"creation": {
						"codeDepositCost": "108600",
						"executionCost": "153",
						"totalCost": "108753"
					},
					"external": {
						"local()": "infinite",
						"myNumber()": "2429"
					}
				},
				"methodIdentifiers": {
					"local()": "0f166ad4",
					"myNumber()": "23fd0e40"
				}
			},
			"storageLayout": {
				"storage": [
					{
						"astId": 3,
						"contract": "contract/localVariables.sol:LocalVariables",
						"label": "myNumber",
						"offset": 0,
						"slot": "0",
						"type": "t_uint256"
					}
				],
				"types": {
					"t_uint256": {
						"encoding": "inplace",
						"label": "uint256",
						"numberOfBytes": "32"
					}
				}
			},
			"userdoc": {
				"kind": "user",
				"methods": {},
				"version": 1
			}
		}
	}
}